:100000000C9472000C947E000C947E000C947E0084
:100010000C947E000C947E000C947E000C947E0068
:100020000C947E000C947E000C947E000C947E0058
:100030000C947E000C947E000C947E000C947E0048
:100040000C947E000C947E000C947E000C947E0038
:100050000C947E000C947E000C947E000C947E0028
:100060000C947E000C947E000C947E000C947E0018
:100070000C947E000C947E000C947E000C947E0008
:100080000C947E000C947E000C947E000C947E00F8
:100090000C947E000C947E000C947E000C947E00E8
:1000A0000C947E000C947E000C947E000C947E00D8
:1000B0000C947E000C947E000C947E000C947E00C8
:1000C0000C947E000C947E000C947E000C947E00B8
:1000D0000C947E000C947E000C947E000C947E00A8
:1000E0000C947E0011241FBECFEFD1E2DEBFCDBF46
:1000F00000E00CBF0E94DB000C9446050C9400004D
:100100003F980E983E9A0F9A4798169808955298DD
:1001100051986D986C980895089809980A980B98CA
:100120000C980D9810981198129813981498159887
:100130000895229A219A209A2A9829982898089511
:10014000EAE0F1E080818062808380818860808342
:10015000ABE0B1E08C918F7D8C938C91877F8C93F9
:1001600080818F7B808380818F7E808380818B7F65
:10017000808380818E7F808308955098089580E4E5
:100180009CE9909327018093260182E880932001C7
:1001900089E18093210108950E9480000E948700D8
:1001A0000E948C000E9499000E94A0000E94BD0045
:1001B0000E94BF0008950E94CC000E941302FFCF4E
:1001C000CF93DF9300D00F92CDB7DEB720E030E6BB
:1001D0004AEE56E469837A838B839C8369817A81B2
:1001E0008B819C810E94D90469837A838B839C8351
:1001F00069817A818B819C810E941504862F972FBB
:1002000099235CF090932D0180932C010F900F9017
:100210000F900F90DF91CF91089580E49CE9F2CF89
:10022000CF93DF9300D00F92CDB7DEB720E030E65A
:100230004AEE56E469837A838B839C8369817A8151
:100240008B819C810E94D90469837A838B839C83F0
:1002500069817A818B819C810E941504862F972F5A
:1002600099235CF090932901809328010F900F90BF
:100270000F900F90DF91CF91089580E49CE9F2CF29
:100280000F931F93CF93DF9300D000D0CDB7DEB78D
:100290000E944002062F172F8E839D830E94BB026F
:1002A000262F372F482F592F09831A838E818B834E
:1002B0009D819C8369817A818B819C810E94360318
:1002C00069837A838B839C8369817A818B819C810A
:1002D0000E94150469837A838B839C8389819A8128
:1002E000092E000CAA0BBB0B89839A83AB83BC83BA
:1002F000BC01CD010E944D04262F372F482F592FC6
:1003000060E070E080E791E40E94360320E030E096
:1003100040E751E469837A838B839C8369817A8186
:100320008B819C810E94A30369837A838B839C8346
:1003300069817A818B819C810F900F900F900F9033
:100340000F900F90DF91CF911F910F9108950F9310
:100350001F93CF93DF9300D000D0CDB7DEB70E94BC
:100360004002062F172F8E839D830E94BB02262FEB
:10037000372F482F592F09831A838E818B839D81B4
:100380009C8369817A818B819C810E943603698379
:100390007A838B839C8369817A818B819C810E9483
:1003A000150469837A838B839C8389819A81092EC2
:1003B000000CAA0BBB0B89839A83AB83BC83BC0163
:1003C000CD010E944D0420E030E040E751E4698314
:1003D0007A838B839C8369817A818B819C810E9443
:1003E000370320E030E040E751E469837A838B8370
:1003F0009C8369817A818B819C810E94A30369839C
:100400007A838B839C8369817A818B819C810F9015
:100410000F900F900F900F900F90DF91CF911F9141
:100420000F910895089580E090E0F1E0E0E072E03F
:1004300060E053E040E034E020E0B5E0A0E002C03E
:100440000097A9F4009902C08F2F9E2F019902C036
:10045000872F962F029902C0852F942F039902C0EF
:10046000832F922F049B07C0059BEACFEBCF089503
:1004700085E090E00895059BFBCF8B2F9A2FE2CF6C
:10048000CF93DF9300D00F92CDB7DEB74698469A50
:1004900025E32A95F1F70000469880E197E2A0E075
:1004A000B0E0379905C00197A109B109D0F705C09F
:1004B000892B8A2B8B2B09F459C01092850010923E
:1004C000840082E080938100E4E8F0E0379B05C07F
:1004D0008081918180349C49C8F310928100809181
:1004E0008400909185009C0140E050E029833A838C
:1004F0004B835C83CA01B9010E944B0428E23EE7AA
:100500004CE05CE369837A838B839C8369817A8185
:100510008B819C810E94D90469837A838B839C831D
:1005200069817A818B819C810E941C0469837A8312
:100530008B839C83A981BA81CD01A0E0B0E089833F
:100540009A83AB83BC83BC01CD010E944B046983B9
:100550007A838B839C8369817A818B819C810F90C4
:100560000F900F900F90DF91CF91089560E070ECA5
:1005700089E794E4ECCFCF93DF9300D00F92CDB70F
:10058000DEB71798179A25E32A95F1F70000179818
:1005900080E197E2A0E0B0E0069905C00197A109CB
:1005A000B109D0F705C0892B8A2B8B2B09F459C0D0
:1005B000109285001092840082E080938100E4E82C
:1005C000F0E0069B05C08081918180349C49C8F38E
:1005D0001092810080918400909185009C0140E000
:1005E00050E029833A834B835C83CA01B9010E949E
:1005F0004B0428E23EE74CE05CE369837A838B831B
:100600009C8369817A818B819C810E94D904698352
:100610007A838B839C8369817A818B819C810E9400
:100620001C0469837A838B839C83A981BA81CD0161
:10063000A0E0B0E089839A83AB83BC83BC01CD0189
:100640000E944B0469837A838B839C8369817A81BE
:100650008B819C810F900F900F900F90DF91CF9125
:10066000089560E070EC89E794E4ECCF5058BB2724
:10067000AA270E944E030C949F040E94910438F014
:100680000E94980420F039F49F3F19F426F40C944A
:100690008E040EF4E095E7FB0C948804E92F0E9489
:1006A000B00458F3BA17620773078407950720F060
:1006B00079F4A6F50C94D2040EF4E0950B2EBA2F23
:1006C000A02D0B01B90190010C01CA01A001112458
:1006D000FF27591B99F0593F50F4503E68F11A1604
:1006E000F040A22F232F342F4427585FF3CF469595
:1006F00037952795A795F0405395C9F77EF41F16B7
:10070000BA0B620B730B840BBAF09150A1F0FF0F80
:10071000BB1F661F771F881FC2F70EC0BA0F621F6C
:10072000731F841F48F4879577956795B795F7955C
:100730009E3F08F0B0CF9395880F08F09927EE0FF1
:100740009795879508950E94B7030C949F040E9483
:10075000980458F00E94910440F029F45F3F29F07A
:100760000C94880451110C94D3040C948E040E94B0
:10077000B00468F39923B1F3552391F3951B550BFE
:10078000BB27AA2762177307840738F09F5F5F4F64
:10079000220F331F441FAA1FA9F335D00E2E3AF0A3
:1007A000E0E832D091505040E695001CCAF72BD0BB
:1007B000FE2F29D0660F771F881FBB1F261737070C
:1007C0004807AB07B0E809F0BB0B802DBF01FF273E
:1007D00093585F4F3AF09E3F510578F00C9488048F
:1007E0000C94D3045F3FE4F3983ED4F38695779559
:1007F0006795B795F7959F5FC9F7880F911D9695F7
:10080000879597F90895E1E0660F771F881FBB1F52
:10081000621773078407BA0720F0621B730B840BFF
:10082000BA0BEE1F88F7E09508950E941C046894A7
:10083000B1110C94D30408950E94B80488F09F5716
:1008400098F0B92F9927B751B0F0E1F0660F771FF4
:10085000881F991F1AF0BA95C9F714C0B13091F0EA
:100860000E94D204B1E008950C94D204672F782F2F
:100870008827B85F39F0B93FCCF3869577956795AF
:10088000B395D9F73EF490958095709561957F4F1B
:100890008F4F9F4F0895E89409C097FB3EF49095C1
:1008A0008095709561957F4F8F4F9F4F9923A9F049
:1008B000F92F96E9BB279395F695879577956795D8
:1008C000B795F111F8CFFAF4BB0F11F460FF1BC01C
:1008D0006F5F7F4F8F4F9F4F16C0882311F096E9AF
:1008E00011C0772321F09EE8872F762F05C066235D
:1008F00071F096E8862F70E060E02AF09A95660F16
:10090000771F881FDAF7880F9695879597F90895CE
:1009100097F99F6780E870E060E008959FEF80ECB2
:10092000089500240A941616170618060906089555
:1009300000240A9412161306140605060895092EBB
:100940000394000C11F4882352F0BB0F40F4BF2B2A
:1009500011F460FF04C06F5F7F4F8F4F9F4F08956A
:1009600057FD9058440F551F59F05F3F71F0479560
:10097000880F97FB991F61F09F3F79F08795089545
:10098000121613061406551FF2CF4695F1DF08C064
:10099000161617061806991FF1CF86957105610581
:1009A00008940895E894BB2766277727CB0197F929
:1009B00008950E94EC040C949F040E94910438F066
:1009C0000E94980420F0952311F00C9488040C9454
:1009D0008E0411240C94D3040E94B00470F3959FEC
:1009E000C1F3950F50E0551F629FF001729FBB2726
:1009F000F00DB11D639FAA27F00DB11DAA1F649FC2
:100A00006627B00DA11D661F829F2227B00DA11D74
:100A1000621F739FB00DA11D621F839FA00D611DFA
:100A2000221F749F3327A00D611D231F849F600D1B
:100A3000211D822F762F6A2F11249F5750409AF044
:100A4000F1F088234AF0EE0FFF1FBB1F661F771FD0
:100A5000881F91505040A9F79E3F510580F00C949B
:100A600088040C94D3045F3FE4F3983ED4F3869556
:100A700077956795B795F795E7959F5FC1F7FE2B3B
:100A8000880F911D9695879597F90895F894FFCF53
:00000001FF
