:100000000C9472000C9493000C9493000C94930045
:100010000C9493000C9403030C948A030C949300A7
:100020000C9493000C9493000C9493000C94930004
:100030000C9493000C9493000C9493000C949300F4
:100040000C9493000C9493000C9493000C949300E4
:100050000C9493000C9493000C9493000C949300D4
:100060000C9493000C9493000C9493000C949300C4
:100070000C9493000C9493000C9493000C949300B4
:100080000C9493000C9493000C9493000C949300A4
:100090000C9493000C9493000C9493000C94930094
:1000A0000C9493000C9493000C9493000C94930084
:1000B0000C9493000C9493000C9493000C94930074
:1000C0000C9493000C9493000C9493000C94930064
:1000D0000C9493000C9493000C9493000C94930054
:1000E0000C94930011241FBECFEFD1E2DEBFCDBF31
:1000F00000E00CBF12E0A0E0B2E0ECEDF6E100E0C1
:100100000BBF02C007900D92AC30B107D9F722E0C7
:10011000ACE0B2E001C01D92AE31B207E1F70E943F
:1001200057010C946C0B0C9400003F980E983E9A6B
:100130000F9A479816980895529851986D983D9A3D
:100140006C983C9A45984498EAE6F0E08081826099
:10015000808380818E7F808380818860808380819E
:100160008B7F8083EC9AED9A85B5846085BD85B5DB
:100170008D7F85BD85B5816085BD10928000E1E8E9
:10018000F0E08081846080830895089809980A9837
:100190000B980C980D98109A119A129A139A149A17
:1001A000159A0895229A219A2A9A299A0895E1E0A7
:1001B000F1E0808188608083AAE0B1E08C91886062
:1001C0008C93E2E0F1E08081877F8083EBE0F1E0D7
:1001D0008081877F80838C9180648C938C918061F7
:1001E0008C938C9184608C938C9181608C938081B2
:1001F0008F7B808380818F7E808380818B7F8083D3
:1002000080818E7F808308955098089520E43CE992
:10021000309327012093260192E8909320018AE1F0
:10022000809321013093A7002093A6009093A00013
:100230008093A100089583B3836083BB0E94F4017F
:100240008AE80E94C9010E94060280E090E00E94B4
:100250001702089561E070E080E090E00E94710470
:1002600060E070E080E090E00E94710460E070E087
:1002700080E89FE30E94410460E070E080E89FE333
:100280000E94110408950E9495000E949C000E9403
:10029000C5000E94D2000E94D7000E9404010E9463
:1002A00006010E941B010E942A01789408950E9471
:1002B00043010E94B607282F392F2330310509F456
:1002C0004EC07CF42130310509F446C0223031059E
:1002D00039F40E9465050E9415060E9465053EC01E
:1002E0003DC02430310509F441C02530310599F570
:1002F00082E090E00E94CC02459A81E090E00E946A
:10030000CC02449A61E070E08FE090E00E94F60237
:100310000E946505459844980E94150682E090E089
:100320000E94CC02459A81E090E00E94CC02449A5F
:100330000E946505459844980E942B0782E090E052
:100340000E94CC02459A81E090E00E94CC02449A3F
:100350000E94650503C002C00E946505FFCF0E9490
:1003600065050E94A0060E946505F8CF82E090E036
:100370000E94CC02459A81E090E00E94CC02449A0F
:1003800061E070E085E090E00E94F6020E94650561
:10039000E5CF98E012C0A098E7ECF0E03197F1F7D4
:1003A00000C00000A19AE7ECF0E03197F1F700C03F
:1003B000000086959150992329F0A19880FFEBCFFA
:1003C000A09AEACFA198989887EC90E00197F1F76E
:1003D00000C00000A19AE7ECF0E03197F1F700C00F
:1003E0000000A198989A0895989AA09AA19A87ECEB
:1003F00090E00197F1F700C00000A09887EC90E032
:100400000197F1F700C00000A1980895A198A09865
:1004100087EC90E00197F1F700C00000A19A87EC0B
:1004200090E00197F1F700C00000A09A0895CF92E4
:10043000DF92EF92FF920F931F93CF93DF9300D041
:100440000F92CDB7DEB7482F592F9A0136952795D1
:100450003695279536952795A5ECB0E20E94390987
:10046000929582958F7089279F70892789839A0139
:100470003695279536952795ABE7B4E10E94390963
:10048000FC01F695E7959F01ADECBCEC0E943909A3
:100490009C01369527953695279536952795C90160
:1004A000880F991F880F991F820F931F880F991F1C
:1004B000E81BF90BEA839A010E943909FC01F695C1
:1004C000E795F695E795F695E7959F010E9439091E
:1004D0009C01369527953695279536952795C90120
:1004E000880F991F880F991F820F931F880F991FDC
:1004F0009F01281B390B2B83CF01880F991F880F71
:10050000991F8E0F9F1F880F991F481B590B4C83F3
:100510000E94F40180E40E94C9010E9406020E9428
:10052000F40180EC0E94C901CE0101967C0100E03B
:1005300010E0DD24D394C12C0FC0D701ED917D01D3
:10054000F0E0EE5FFD4F80810E94C9010F5F1F4FF9
:100550000430110591F0DC2C0330110574F7D7013C
:100560008C918111EACFDD2041F30E94C9010F5F18
:100570001F4FBFEFEB1AFB0AEFCF0E9406020F904E
:100580000F900F900F90DF91CF911F910F91FF90DF
:10059000EF90DF90CF900895282F392F223031052A
:1005A00079F0232B99F480910002909101021816A2
:1005B00019068CF40197909301028093000206C003
:1005C00082E090E0909301028093000280910E02FD
:1005D00090910F02089520910E0230910F022F5F2B
:1005E0003F4F30930F0220930E02E4CF613071052C
:1005F00029F080910C0290910D02089580930C02D5
:1006000090930D02F6CF1F920F920FB60F92112406
:100610000BB60F92EF92FF920F931F932F933F937E
:100620004F935F936F937F938F939F93AF93BF93FA
:10063000EF93FF93CF93DF930F920F92CDB7DEB777
:10064000E0900C02F0900D0280E090E00E94CC025D
:10065000082F192FC8010E94170260E070E0CB013B
:100660000E94110460E070E0CB010E9441041A82F4
:1006700019820E151F05B4F016BC22E031E008C047
:10068000A89B06C035BB89819A8101969A8389838C
:1006900089819A81CD97A4F385B1822785B91A8281
:1006A0001982F6CF16BC89819A818A379105B4F4F4
:1006B000A89BF9CF81E085BB89819A8101969A83B5
:1006C000898389819A816EE170E00E942509892BD6
:1006D00051F785B192E0892785B9E5CF299A0F9026
:1006E0000F90DF91CF91FF91EF91BF91AF919F91CB
:1006F0008F917F916F915F914F913F912F911F91BA
:100700000F91FF90EF900F900BBE0F900FBE0F90C8
:100710001F9018951F920F920FB60F9211240BB6CF
:100720000F92EF92FF920F931F932F933F934F934C
:100730005F936F937F938F939F93AF93BF93EF9349
:10074000FF93CF93DF930F920F92CDB7DEB7E09078
:100750000C02F0900D0280E090E00E94CC02082F85
:10076000192FC8010E94170260E070E0CB010E94BF
:10077000110460E070E0CB010E9441041A821982EA
:100780000E151F05B4F016BC22E031E008C0A89B8E
:1007900006C035BB89819A8101969A8389838981B4
:1007A0009A81CD97A4F385B1822785B91A821982DF
:1007B000F6CF16BC89819A818A379105B4F4A89B3B
:1007C000F9CF81E085BB89819A8101969A838983DB
:1007D00089819A816EE170E00E942509892B51F789
:1007E00085B192E0892785B9E5CF299A0F900F90BE
:1007F000DF91CF91FF91EF91BF91AF919F918F9139
:100800007F916F915F914F913F912F911F910F9128
:10081000FF90EF900F900BBE0F900FBE0F901F90A8
:100820001895CF93DF9300D00F92CDB7DEB720E0BD
:1008300030E44CE956E469837A838B839C83698135
:100840007A818B819C810E94FF0A69837A838B83E2
:100850009C8369817A818B819C810E943B0A862FCF
:10086000972F99235CF09093A9008093A8000F9094
:100870000F900F900F90DF91CF91089580E49CE945
:10088000F2CFCF93DF9300D00F92CDB7DEB720E049
:1008900030E44CE956E469837A838B839C836981D5
:1008A0007A818B819C810E94FF0A69837A838B8382
:1008B0009C8369817A818B819C810E943B0A862F6F
:1008C000972F99235CF090932901809328010F9032
:1008D0000F900F900F90DF91CF91089580E49CE9E5
:1008E000F2CF282F392F862F972F8130910559F07D
:1008F000892B41F42130310591F122303105C1F1CC
:10090000232B21F108952130310571F0223031057A
:10091000A1F0232BB9F7EBE0F1E0808184608083C4
:1009200080818E7F80830895EBE0F1E080818B7F72
:1009300080838081816080830895EBE0F1E0808195
:10094000846080838081816080830895EBE0F1E0A2
:1009500080818064808380818F7E80830895EBE036
:10096000F1E080818F7B8083808180618083089526
:10097000EBE0F1E08081806480838081806180830E
:10098000C1CFCF93DF9300D00F92CDB7DEB7282F22
:10099000392F203131050CF041C0C901330FAA0BAA
:1009A000BB0B89839A83AB83BC83BC01CD010E94BE
:1009B000730A262F372F482F592F60E070E080E709
:1009C00091E40E945C0920E030E040E751E4698353
:1009D0007A838B839C8369817A818B819C810E943D
:1009E000C909362F272F432F522F682F792F409375
:1009F0001A0250931B0260931C0270931D023983EC
:100A00002A838B839C8369817A818B819C810F905F
:100A10000F900F900F90DF91CF91089530E020E07C
:100A200080E090E0E0CFCF93DF9300D00F92CDB77E
:100A3000DEB7282F392F203131050CF041C0C90114
:100A4000330FAA0BBB0B89839A83AB83BC83BC0196
:100A5000CD010E94730A262F372F482F592F60E0AF
:100A600070E080E791E40E945C0920E030E040E71C
:100A700051E469837A838B839C8369817A818B813A
:100A80009C810E94C909362F272F432F522F682F90
:100A9000792F4093160250931702609318027093B7
:100AA000190239832A838B839C8369817A818B81A4
:100AB0009C810F900F900F900F90DF91CF91089530
:100AC00030E020E080E090E0E0CFCF93DF9300D0F3
:100AD0000F92CDB7DEB760E070E080E89FE30E9440
:100AE000410460E070E080E89FE30E9411041A82F4
:100AF000198208C089819A8101969A838983029715
:100B00000CF063C00E94C3089093150280931402F6
:100B10000E94610890931302809312020E94610860
:100B20004F9740F70E94C3084F9720F78091140217
:100B30009091150220911202309113022817390763
:100B400070F0809112029091130220911402309162
:100B500015022817390700F11A821982D3CF821B98
:100B6000930B909311028093100260E070E080E894
:100B70009FE30E94410480911002909111020E9413
:100B8000C10469837A838B839C8369817A818B8199
:100B90009C810E941104D5CF821B930B909311026C
:100BA000809310020E94130569837A838B839C8350
:100BB00069817A818B819C810E94410460E070E0B0
:100BC00080E89FE30E941104C7CF60E070E080E8F6
:100BD0009FE30E94110460E070E080E89FE30E94C0
:100BE000410486E997EE90939500809394001092CB
:100BF000900084E0809391002A9886E090E041E0A4
:100C0000E4E9F0E026E937EEC09BFECF01970097BC
:100C100021F048BB31832083F7CF29980F900F90A4
:100C20000F900F90DF91CF9108952F923F924F92A6
:100C30005F926F927F928F929F92BF92CF92DF923C
:100C4000EF92FF920F931F93CF93DF9304E910E08D
:100C50000F2EF6E9EF2EF7EEFF2EF02D0F2EF0E916
:100C60002F2E312CF02D0F2EF1E94F2E512CF02D7F
:100C7000C2EBD0E00F2EF6E0CF2EF02D0F2EF0EBD2
:100C80006F2E712CF02D0F2EF1EB8F2E912CF02D5D
:100C90000F2EF3E0BF2EF02DDD24D3941BC060E0B7
:100CA00070E080E89FE30E94410460E070E080E82B
:100CB0009FE30E941104C88280E991E0B89BFECFB7
:100CC0000197009719F0D7BAC882F8CF0E94C308DD
:100CD000449720F1F801F182E082F101108284E072
:100CE000F2018083C882F3011082F401B08260E0D7
:100CF00070E0CB010E94410460E070E080E89FE377
:100D00000E94110485E090E0C09BFECF0197009700
:100D100031F2D8BAF801F182E082F6CFDF91CF91BB
:100D20001F910F91FF90EF90DF90CF90BF909F9019
:100D30008F907F906F905F904F903F902F9008958D
:100D40002F923F924F925F926F927F928F929F92DB
:100D5000BF92CF92DF92EF92FF920F931F93CF93A8
:100D6000DF9304E910E00F2EF6E9EF2EF7EEFF2EE9
:100D7000F02D0F2EF0E92F2E312CF02D0F2EF1E952
:100D80004F2E512CF02DC2EBD0E00F2EF6E0CF2EDF
:100D9000F02D0F2EF0EB6F2E712CF02D0F2EF1EBAE
:100DA0008F2E912CF02D0F2EF3E0BF2EF02DDD2491
:100DB000D3941BC060E070E080E89FE30E94410490
:100DC00060E070E080E89FE30E941104C88280E93F
:100DD00091E0B89BFECF0197009719F0D7BAC8826F
:100DE000F8CF0E946108449720F1F801F182E08277
:100DF000F101108284E0F2018083C882F301108245
:100E0000F401B08260E070E080E89FE30E9441045A
:100E100060E070E0CB010E94110485E090E0C09B8F
:100E2000FECF0197009731F2D8BAF801F182E08243
:100E3000F6CFDF91CF911F910F91FF90EF90DF9050
:100E4000CF90BF909F908F907F906F905F904F90CA
:100E50003F902F9008952F923F924F925F926F9202
:100E60007F928F929F92BF92CF92DF92EF92FF92EA
:100E70000F931F93CF93DF9304E910E00F2EF6E951
:100E8000EF2EF7EEFF2EF02D0F2EF0E92F2E312C46
:100E9000F02D0F2EF1E94F2E512CF02DC2EBD0E0AA
:100EA0000F2EF6E0CF2EF02D0F2EF0EB6F2E712CC3
:100EB000F02D0F2EF1EB8F2E912CF02D0F2EF3E055
:100EC000BF2EF02DDD24D3941BC060E070E080E8DD
:100ED0009FE30E94410460E070E080E89FE30E948D
:100EE0001104C8828EE591E0B89BFECF0197009770
:100EF00019F0D7BAC882F8CF0E946108449720F150
:100F0000F801F182E082F101108284E0F201808335
:100F1000C882F3011082F401B08260E070E080E8E2
:100F20009FE30E94410460E070E0CB010E94110445
:100F300085E090E0C09BFECF0197009731F2D8BAD0
:100F4000F801F182E082F6CFDF91CF911F910F91EE
:100F5000FF90EF90DF90CF90BF909F908F907F9009
:100F60006F905F904F903F902F900895CF92DF92B7
:100F7000EF92FF920F931F93CF93DF930E94430151
:100F800020E030E080E090E071E060E002E010E01E
:100F9000D3E0C0E06894DD24D2F8C12CF0E0E0E0BA
:100FA0000F2EF5E0EF2EF02DF12C1FC04F2F5E2FEE
:100FB00005990AC0009741F0AFE1BEE41197F1F73F
:100FC00000C00000472F562F009908C0019906C0A5
:100FD000029904C0039902C0049B04C0213031056A
:100FE00009F45DC0452B09F063C000990DC02115BF
:100FF000310551F48FE19EE40197F1F700C0000044
:10100000272F362F872F962F01990DC021153105D7
:1010100051F4AFE1BEE41197F1F700C00000272FB3
:10102000362F802F912F02990DC02115310551F4D3
:101030008FE19EE40197F1F700C00000272F362FC3
:101040008D2F9C2F03990DC02115310551F4AFE16F
:10105000BEE41197F1F700C00000272F362F8D2D29
:101060009C2D0499A3CF2115310509F09FCF8FE165
:101070009EE40197F1F700C00000059B08C00099AD
:101080000BC0A90121E030E085E090E09FCF272F41
:10109000362F8E2D9F2D90CFA90185E090E0AFE1F6
:1010A000BEE41197F1F700C000002F2F3E2F9ACF1A
:1010B000DF91CF911F910F91FF90EF90DF90CF9034
:1010C0000895CF93DF9300D00F92CDB7DEB7469847
:1010D000469A25E32A95F1F70000469880E197E2C9
:1010E000A0E0B0E0379905C00197A109B109D0F798
:1010F00005C0892B8A2B8B2B09F442C010928500E6
:101100001092840082E080938100E4E8F0E0379B55
:1011100005C08081918180349C49C8F31092810080
:1011200080918400909185009C0140E050E02983EB
:101130003A834B835C83CA01B9010E94710A28E299
:101140003EE74CE05CE369837A838B839C8369810F
:101150007A818B819C810E94FF0A69837A838B83C9
:101160009C8369817A818B819C810E94420A862FAF
:10117000972F0F900F900F900F90DF91CF910895C0
:1011800087EE93E0F6CFCF93DF9300D00F92CDB7E9
:10119000DEB71798179A25E32A95F1F700001798FC
:1011A00080E197E2A0E0B0E0069905C00197A109AF
:1011B000B109D0F705C0892B8A2B8B2B09F442C0CB
:1011C000109285001092840082E080938100E4E810
:1011D000F0E0069B05C08081918180349C49C8F372
:1011E0001092810080918400909185009C0140E0E4
:1011F00050E029833A834B835C83CA01B9010E9482
:10120000710A28E23EE74CE05CE369837A838B83D2
:101210009C8369817A818B819C810E94FF0A69830A
:101220007A838B839C8369817A818B819C810E94E4
:10123000420A862F972F0F900F900F900F90DF91FB
:10124000CF91089587EE93E0F6CF97FB072E16F423
:10125000009407D077FD09D00E94480907FC05D00B
:101260003EF4909581959F4F0895709561957F4FBD
:101270000895A29FB001B39FC001A39F700D811D6F
:101280001124911DB29F700D811D1124911D08958F
:10129000AA1BBB1B51E107C0AA1FBB1FA617B7079C
:1012A00010F0A61BB70B881F991F5A95A9F78095B8
:1012B0009095BC01CD0108955058BB27AA270E94E4
:1012C00074090C94C50A0E94B70A38F00E94BE0A3D
:1012D00020F039F49F3F19F426F40C94B40A0EF46C
:1012E000E095E7FB0C94AE0AE92F0E94D60A58F36A
:1012F000BA17620773078407950720F079F4A6F5FB
:101300000C94F80A0EF4E0950B2EBA2FA02D0B01C9
:10131000B90190010C01CA01A0011124FF27591B3A
:1013200099F0593F50F4503E68F11A16F040A22F40
:10133000232F342F4427585FF3CF469537952795B1
:10134000A795F0405395C9F77EF41F16BA0B620BB0
:10135000730B840BBAF09150A1F0FF0FBB1F661FF7
:10136000771F881FC2F70EC0BA0F621F731F841F3A
:1013700048F4879577956795B795F7959E3F08F060
:10138000B0CF9395880F08F09927EE0F9795879522
:1013900008950E94DD090C94C50A0E94BE0A58F007
:1013A0000E94B70A40F029F45F3F29F00C94AE0A7E
:1013B00051110C94F90A0C94B40A0E94D60A68F3ED
:1013C0009923B1F3552391F3951B550BBB27AA27FE
:1013D00062177307840738F09F5F5F4F220F331F38
:1013E000441FAA1FA9F335D00E2E3AF0E0E832D000
:1013F00091505040E695001CCAF72BD0FE2F29D003
:10140000660F771F881FBB1F261737074807AB07D4
:10141000B0E809F0BB0B802DBF01FF2793585F4F49
:101420003AF09E3F510578F00C94AE0A0C94F90AFC
:101430005F3FE4F3983ED4F3869577956795B7952B
:10144000F7959F5FC9F7880F911D9695879597F936
:101450000895E1E0660F771F881FBB1F62177307AF
:101460008407BA0720F0621B730B840BBA0BEE1FC4
:1014700088F7E09508950E94420A6894B1110C948F
:10148000F90A08950E94DE0A88F09F5798F0B92F54
:101490009927B751B0F0E1F0660F771F881F991FA9
:1014A0001AF0BA95C9F714C0B13091F00E94F80A49
:1014B000B1E008950C94F80A672F782F8827B85F59
:1014C00039F0B93FCCF3869577956795B395D9F701
:1014D0003EF490958095709561957F4F8F4F9F4F0B
:1014E0000895E89409C097FB3EF490958095709517
:1014F00061957F4F8F4F9F4F9923A9F0F92F96E960
:10150000BB279395F695879577956795B795F111D4
:10151000F8CFFAF4BB0F11F460FF1BC06F5F7F4F71
:101520008F4F9F4F16C0882311F096E911C0772383
:1015300021F09EE8872F762F05C0662371F096E88C
:10154000862F70E060E02AF09A95660F771F881F5B
:10155000DAF7880F9695879597F9089597F99F6719
:1015600080E870E060E008959FEF80EC089500242B
:101570000A941616170618060906089500240A94F8
:1015800012161306140605060895092E0394000C7E
:1015900011F4882352F0BB0F40F4BF2B11F460FF0D
:1015A00004C06F5F7F4F8F4F9F4F089557FD905836
:1015B000440F551F59F05F3F71F04795880F97FB17
:1015C000991F61F09F3F79F08795089512161306D1
:1015D0001406551FF2CF4695F1DF08C01616170600
:1015E0001806991FF1CF8695710561050894089535
:1015F000E894BB2766277727CB0197F908950E94C7
:10160000120B0C94C50A0E94B70A38F00E94BE0A59
:1016100020F0952311F00C94AE0A0C94B40A112416
:101620000C94F90A0E94D60A70F3959FC1F3950FA6
:1016300050E0551F629FF001729FBB27F00DB11D56
:10164000639FAA27F00DB11DAA1F649F6627B00DE6
:10165000A11D661F829F2227B00DA11D621F739FCF
:10166000B00DA11D621F839FA00D611D221F749FDD
:101670003327A00D611D231F849F600D211D822F24
:10168000762F6A2F11249F5750409AF0F1F088234B
:101690004AF0EE0FFF1FBB1F661F771F881F915078
:1016A0005040A9F79E3F510580F00C94AE0A0C946F
:1016B000F90A5F3FE4F3983ED4F3869577956795F2
:1016C000B795F795E7959F5FC1F7FE2B880F911DA2
:0C16D0009695879597F90895F894FFCF40
:0C16DC0002003F065B4F666D7D077F6FCC
:00000001FF
