:100000000C9472000C947E000C947E000C947E0084
:100010000C947E000C947E000C947E000C947E0068
:100020000C947E000C947E000C947E000C947E0058
:100030000C947E000C947E000C947E000C947E0048
:100040000C947E000C947E000C947E000C947E0038
:100050000C947E000C947E000C947E000C947E0028
:100060000C947E000C947E000C947E000C947E0018
:100070000C947E000C947E000C947E000C947E0008
:100080000C947E000C947E000C947E000C947E00F8
:100090000C947E000C947E000C947E000C947E00E8
:1000A0000C947E000C947E000C947E000C947E00D8
:1000B0000C947E000C947E000C947E000C947E00C8
:1000C0000C947E000C947E000C947E000C947E00B8
:1000D0000C947E000C947E000C947E000C947E00A8
:1000E0000C947E0011241FBECFEFD1E2DEBFCDBF46
:1000F00000E00CBF0E94D2000C9463050C94000039
:100100003F980E983E9A0F9A4798169808955298DD
:1001100051986D986C980895089809980A980B98CA
:100120000C980895229A219A209A2A98299828981A
:100130000895EAE0F1E080818062808380818860B8
:100140008083ABE0B1E08C918F7D8C938C91877F25
:100150008C9380818F7B808380818F7E8083808160
:100160008B7F808380818E7F80830895509808954F
:1001700080E49CE9909327018093260182E8809394
:10018000200189E18093210108950E9480000E944E
:1001900087000E948C000E9492000E9499000E9499
:1001A000B60008950E94C5000E94DD01FDCFCF93E7
:1001B000DF9300D00F92CDB7DEB720E43CE9DC013D
:1001C0000E94140369837A838B839C830E94440476
:1001D0002DEC3CEC4CE45FE369837A838B839C8356
:1001E00069817A818B819C810E94F60469837A837C
:1001F0008B839C8369817A818B819C810E94150409
:10020000462F572F50932D0140932C010F900F90A4
:100210000F900F90DF91CF910895CF93DF9300D08F
:100220000F92CDB7DEB720E43CE9DC010E94140355
:1002300069837A838B839C830E9444042DEC3CEC7D
:100240004CE45FE369837A838B839C8369817A8141
:100250008B819C810E94F60469837A838B839C83C3
:1002600069817A818B819C810E941504462F572FCA
:1002700050932901409328010F900F900F900F90F9
:10028000DF91CF9108950F931F93CF93DF9300D009
:1002900000D0CDB7DEB70E943002062F172F8E8315
:1002A0009D830E94A202262F372F482F592F0983A2
:1002B0001A838E818B838D818C8369817A818B8176
:1002C0009C810E942A03262F372F482F592F60E048
:1002D00070E080E791E40E942A0320E030E040E7EC
:1002E00051E469837A838B839C8369817A818B81D2
:1002F0009C810E949C0369837A838B839C836981A0
:100300007A818B819C810F900F900F900F900F90AE
:100310000F90DF91CF911F910F9108950F931F932D
:10032000CF93DF9300D000D0CDB7DEB70E9430026C
:10033000062F172F8E839D830E94A202262F372F10
:10034000482F592F09831A838E818B838D818C834B
:1003500069817A818B819C810E942A0320E030E0B0
:1003600040E751E469837A838B839C8369817A8136
:100370008B819C810E942B0320E030E040E751E418
:1003800069837A838B839C8369817A818B819C8149
:100390000E949C0369837A838B839C8369817A8121
:1003A0008B819C810F900F900F900F900F900F906A
:1003B000DF91CF911F910F910895CF93DF9300D0DC
:1003C0000F92CDB7DEB720C00E94430169837A83C4
:1003D0008B839C8369817A818B819C810E940E042E
:1003E000862F972F0E94D7000E948E0169837A83FF
:1003F0008B839C8369817A818B819C810E940E040E
:10040000862F972F0E940D010E94300220E030E0DD
:1004100048EC52E469837A838B839C8369817A8177
:100420008B819C810E949703882374F20E94A20210
:1004300020E030E048EC52E469837A838B839C832C
:1004400069817A818B819C810E94970388230CF4B7
:10045000BBCF0F900F900F900F90DF91CF91089529
:10046000CF93DF9300D00F92CDB7DEB7469A469870
:10047000379965C080E090E00196379BFDCF9C01E5
:1004800040E050E029833A834B835C83CA01B90181
:100490000E9444042FE737E842E25AE369837A83F3
:1004A0008B839C8369817A818B819C810E949C03D0
:1004B00020E030E040EA53E469837A838B839C83B5
:1004C00069817A818B819C810E94F60420E030E072
:1004D00048EC52E469837A838B839C8369817A81B7
:1004E0008B819C810E94F60469837A838B839C8331
:1004F00069817A818B819C810E940E0469837A8351
:100500008B839C8389819A81092E000CAA0BBB0BDB
:1005100089839A83AB83BC83BC01CD010E944604CE
:1005200069837A838B839C8369817A818B819C81A7
:100530000F900F900F900F90DF91CF91089580E072
:1005400090E09DCFCF93DF9300D00F92CDB7DEB771
:10055000179A1798069965C080E090E00196069B6F
:10056000FDCF9C0140E050E029833A834B835C83BC
:10057000CA01B9010E9444042FEF35E042E858E374
:1005800069837A838B839C8369817A818B819C8147
:100590000E949C0320E030E040EA53E469837A83C0
:1005A0008B839C8369817A818B819C810E94F60474
:1005B00020E030E048EC52E469837A838B839C83AB
:1005C00069817A818B819C810E94F60469837A8398
:1005D0008B839C8369817A818B819C810E940E042C
:1005E00069837A838B839C8389819A81092E000C8D
:1005F000AA0BBB0B89839A83AB83BC83BC01CD015F
:100600000E94460469837A838B839C8369817A8103
:100610008B819C810F900F900F900F90DF91CF9165
:10062000089580E090E09DCF0E941B03B7FF0895DE
:10063000821B930B0895A29FB001B39FC001A39F9B
:10064000700D811D1124911DB29F700D811D11240B
:10065000911D08955058BB27AA270E9442030C946D
:10066000BC040E94AE0438F00E94B50420F039F4B6
:100670009F3F19F426F40C94AB040EF4E095E7FBCD
:100680000C94A504E92F0E94CD0458F3BA17620711
:1006900073078407950720F079F4A6F50C94EF040E
:1006A0000EF4E0950B2EBA2FA02D0B01B90190018D
:1006B0000C01CA01A0011124FF27591B99F0593FD1
:1006C00050F4503E68F11A16F040A22F232F342F19
:1006D0004427585FF3CF469537952795A795F04067
:1006E0005395C9F77EF41F16BA0B620B730B840B7C
:1006F000BAF09150A1F0FF0FBB1F661F771F881F34
:10070000C2F70EC0BA0F621F731F841F48F487958B
:1007100077956795B795F7959E3F08F0B0CF93957D
:10072000880F08F09927EE0F9795879508950E94F6
:10073000810408F481E008950E94B0030C94BC0485
:100740000E94B50458F00E94AE0440F029F45F3FC7
:1007500029F00C94A50451110C94F0040C94AB04F2
:100760000E94CD0468F39923B1F3552391F3951BAF
:10077000550BBB27AA2762177307840738F09F5FC2
:100780005F4F220F331F441FAA1FA9F335D00E2E2F
:100790003AF0E0E832D091505040E695001CCAF79C
:1007A0002BD0FE2F29D0660F771F881FBB1F26175F
:1007B00037074807AB07B0E809F0BB0B802DBF0136
:1007C000FF2793585F4F3AF09E3F510578F00C9405
:1007D000A5040C94F0045F3FE4F3983ED4F38695AF
:1007E00077956795B795F7959F5FC9F7880F911D26
:1007F0009695879597F90895E1E0660F771F881F12
:10080000BB1F621773078407BA0720F0621B730BC4
:10081000840BBA0BEE1F88F7E09508950E9415042B
:100820006894B1110C94F00408950E94D50488F0E6
:100830009F5798F0B92F9927B751B0F0E1F0660FA4
:10084000771F881F991F1AF0BA95C9F714C0B130E5
:1008500091F00E94EF04B1E008950C94EF04672F2B
:10086000782F8827B85F39F0B93FCCF38695779514
:100870006795B395D9F73EF49095809570956195FD
:100880007F4F8F4F9F4F0895E89409C097FB3EF428
:1008900090958095709561957F4F8F4F9F4F9923CD
:1008A000A9F0F92F96E9BB279395F695879577954B
:1008B0006795B795F111F8CFFAF4BB0F11F460FF0B
:1008C0001BC06F5F7F4F8F4F9F4F16C0882311F063
:1008D00096E911C0772321F09EE8872F762F05C077
:1008E000662371F096E8862F70E060E02AF09A9512
:1008F000660F771F881FDAF7880F9695879597F907
:100900000895990F0008550FAA0BE0E8FEEF1616A0
:100910001706E807F907C0F012161306E407F507F3
:1009200098F0621B730B840B950B39F40A2661F067
:10093000232B242B252B21F408950A2609F4A1400A
:10094000A6958FEF811D811D089597F99F6780E817
:1009500070E060E008959FEF80EC089500240A9411
:100960001616170618060906089500240A9412168A
:100970001306140605060895092E0394000C11F4BD
:10098000882352F0BB0F40F4BF2B11F460FF04C06A
:100990006F5F7F4F8F4F9F4F089557FD9058440FC3
:1009A000551F59F05F3F71F04795880F97FB991FCE
:1009B00061F09F3F79F0879508951216130614068B
:1009C000551FF2CF4695F1DF08C016161706180618
:1009D000991FF1CF86957105610508940895E894F3
:1009E000BB2766277727CB0197F908950E94090551
:1009F0000C94BC040E94AE0438F00E94B50420F0B0
:100A0000952311F00C94A5040C94AB0411240C94C0
:100A1000F0040E94CD0470F3959FC1F3950F50E050
:100A2000551F629FF001729FBB27F00DB11D639FA0
:100A3000AA27F00DB11DAA1F649F6627B00DA11D46
:100A4000661F829F2227B00DA11D621F739FB00DEC
:100A5000A11D621F839FA00D611D221F749F33275C
:100A6000A00D611D231F849F600D211D822F762FF5
:100A70006A2F11249F5750409AF0F1F088234AF0D2
:100A8000EE0FFF1FBB1F661F771F881F915050403E
:100A9000A9F79E3F510580F00C94A5040C94F00436
:100AA0005F3FE4F3983ED4F3869577956795B795C5
:100AB000F795E7959F5FC1F7FE2B880F911D9695DF
:0A0AC000879597F90895F894FFCF89
:00000001FF
