:100000000C9472000C9493000C9493000C94930045
:100010000C9493000C94D0020C9455030C94930010
:100020000C9493000C9493000C9493000C94930004
:100030000C9493000C9493000C9493000C949300F4
:100040000C9493000C9493000C9493000C949300E4
:100050000C9493000C9493000C9493000C949300D4
:100060000C9493000C9493000C9493000C949300C4
:100070000C9493000C9493000C9493000C949300B4
:100080000C9493000C9493000C9493000C949300A4
:100090000C9493000C9493000C9493000C94930094
:1000A0000C9493000C9493000C9493000C94930084
:1000B0000C9493000C9493000C9493000C94930074
:1000C0000C9493000C9493000C9493000C94930064
:1000D0000C9493000C9493000C9493000C94930054
:1000E0000C94930011241FBECFEFD1E2DEBFCDBF31
:1000F00000E00CBF12E0A0E0B2E0E0EFF8E100E0C9
:100100000BBF02C007900D92A631B107D9F722E0CC
:10011000A6E1B2E001C01D92A632B207E1F70E944B
:100120004A010C94760C0C9400003F980E983E9A6D
:100130000F9A479816980895529851986D983D9A3D
:100140006C983C9A45984498EAE6F0E08081826099
:10015000808380818E7F808380818860808380819E
:100160008B7F8083EC9AED9A85B5846085BD85B5DB
:100170008D7F85BD85B5816085BD089508980998F6
:100180000A980B980C980D98109A119A129A139A33
:10019000149A159A0895229A219A2A9A299A0895CA
:1001A000E1E0F1E0808188608083AAE0B1E08C9199
:1001B00088608C93E2E0F1E08081877F8083EBE0D0
:1001C000F1E08081877F80838C9180648C938C9117
:1001D00080618C938C9184608C938C9181608C93E2
:1001E00080818F7B808380818F7E808380818B7FE5
:1001F000808380818E7F808308955098089520E4C5
:100200003CE9309327012093260192E89093200146
:100210008AE1809321013093A7002093A600909358
:10022000A0008093A1000895E1E0F1E08081806367
:1002300080839D9AA598089586E98093B2001092D4
:10024000B00084E08093B100089583B3836083BBE2
:100250000E94E1018AE80E94B6010E94F30180E059
:1002600090E00E94040208950E9495000E949C0064
:100270000E94BE000E94CB000E94D0000E94FD00A0
:100280000E94FF000E941C010E9414010E9425018F
:10029000789408950E943401279A269A259A249AE0
:1002A0002F9A2E9A2D9A2C9A0E94B007282F392F18
:1002B0002330310509F43FC024F12430310509F41D
:1002C00047C025303105A1F5459A449A61E070E0B8
:1002D0008FE090E00E94C30280E090E00E942E0533
:1002E00080E090E00E94D20581E090E00E942E051F
:1002F00081E090E00E94D20580E090E00E942E050F
:1003000017C02130310581F02230310589F480E0B9
:1003100090E00E942E0580E090E00E94D20581E0EE
:1003200090E00E942E0504C080E090E00E942E051F
:1003300080E090E0089581E090E00E942E0581E049
:1003400090E00E94D20580E090E00E942E05F0CF60
:10035000459A449A61E070E085E090E00E94C30213
:1003600080E090E00E942E05E3CF089598E012C04F
:10037000A098E7ECF0E03197F1F700C00000A19AF7
:10038000E7ECF0E03197F1F700C00000869591505E
:10039000992329F0A19880FFEBCFA09AEACFA198EA
:1003A000989887EC90E00197F1F700C00000A19ABF
:1003B000E7ECF0E03197F1F700C00000A198989ABF
:1003C0000895989AA09AA19A87EC90E00197F1F786
:1003D00000C00000A09887EC90E00197F1F700C002
:1003E0000000A1980895A198A09887EC90E001974B
:1003F000F1F700C00000A19A87EC90E00197F1F7B7
:1004000000C00000A09A0895CF92DF92EF92FF9271
:100410000F931F93CF93DF9300D00F92CDB7DEB72A
:10042000482F592F9A013695279536952795369559
:100430002795A5ECB0E20E94430A929582958F70B1
:1004400089279F70892789839A0136952795369544
:100450002795ABE7B4E10E94430AFC01F695E795C6
:100460009F01ADECBCEC0E94430A9C013695279598
:100470003695279536952795C901880F991F880FBE
:10048000991F820F931F880F991FE81BF90BEA83AE
:100490009A010E94430AFC01F695E795F695E795C7
:1004A000F695E7959F010E94430A9C013695279592
:1004B0003695279536952795C901880F991F880F7E
:1004C000991F820F931F880F991F9F01281B390BBB
:1004D0002B83CF01880F991F880F991F8E0F9F1FA5
:1004E000880F991F481B590B4C830E94E10180E43F
:1004F0000E94B6010E94F3010E94E10180EC0E947B
:10050000B601CE0101967C0100E010E0DD24D39419
:10051000C12C0FC0D701ED917D01F0E0EE5FFD4FE2
:1005200080810E94B6010F5F1F4F0430110591F0CA
:10053000DC2C0330110574F7D7018C918111EACFBF
:10054000DD2041F30E94B6010F5F1F4FBFEFEB1A92
:10055000FB0AEFCF0E94F3010F900F900F900F90C6
:10056000DF91CF911F910F91FF90EF90DF90CF908F
:1005700008958091000290910102019690930102EA
:100580008093000208956130710529F08091160270
:100590009091170208958093160290931702F6CF58
:1005A0001F920F920FB60F9211240BB60F92EF927B
:1005B000FF920F931F932F933F934F935F936F93EC
:1005C0007F938F939F93AF93BF93EF93FF93CF93BB
:1005D000DF930F920F92CDB7DEB7E0901602F09046
:1005E00017020E94B902082F192FC8010E940402A5
:1005F00060E070E0CB010E94DA0360E070E0CB01C4
:100600000E940A041A8219820E151F05B4F016BC46
:1006100022E031E008C0A89B06C035BB89819A81E1
:1006200001969A83898389819A81CD97A4F385B1B4
:10063000822785B91A821982F6CF16BC89819A81E0
:100640008A379105B4F4A89BF9CF81E085BB8981F5
:100650009A8101969A83898389819A816EE170E0FB
:100660000E942F0A892B51F785B192E0892785B91D
:10067000E5CF299A0F900F90DF91CF91FF91EF91E5
:10068000BF91AF919F918F917F916F915F914F91AA
:100690003F912F911F910F91FF90EF900F900BBE04
:1006A0000F900FBE0F901F9018951F920F920FB6CC
:1006B0000F9211240BB60F92EF92FF920F931F939C
:1006C0002F933F934F935F936F937F938F939F935A
:1006D000AF93BF93EF93FF93CF93DF930F920F925C
:1006E000CDB7DEB7E0901602F09017020E94B90273
:1006F000082F192FC8010E94040260E070E0CB01AE
:100700000E94DA0360E070E0CB010E940A041A82C2
:1007100019820E151F05B4F016BC22E031E008C0A6
:10072000A89B06C035BB89819A8101969A838983EB
:1007300089819A81CD97A4F385B1822785B91A82E0
:100740001982F6CF16BC89819A818A379105B4F453
:10075000A89BF9CF81E085BB89819A8101969A8314
:10076000898389819A816EE170E00E942F0A892B2A
:1007700051F785B192E0892785B9E5CF299A0F9085
:100780000F90DF91CF91FF91EF91BF91AF919F912A
:100790008F917F916F915F914F913F912F911F9119
:1007A0000F91FF90EF900F900BBE0F900FBE0F9028
:1007B0001F901895CF93DF9300D00F92CDB7DEB77F
:1007C00020E030E44CE956E469837A838B839C8390
:1007D00069817A818B819C810E94090C69837A836B
:1007E0008B839C8369817A818B819C810E94450BDC
:1007F000862F972F99235CF09093A9008093A800EF
:100800000F900F900F900F90DF91CF91089580E49B
:100810009CE9F2CFCF93DF9300D00F92CDB7DEB734
:1008200020E030E44CE956E469837A838B839C832F
:1008300069817A818B819C810E94090C69837A830A
:100840008B839C8369817A818B819C810E94450B7B
:10085000862F972F99235CF090932901809328018C
:100860000F900F900F900F90DF91CF91089580E43B
:100870009CE9F2CF282F392F862F972F81309105B1
:1008800059F0892B41F42130310591F122303105A5
:10089000C1F1232B21F108952130310571F022306F
:1008A0003105A1F0232BB9F7EBE0F1E08081846002
:1008B000808380818E7F80830895EBE0F1E08081EA
:1008C0008B7F80838081816080830895EBE0F1E0FD
:1008D0008081846080838081816080830895EBE0E3
:1008E000F1E080818064808380818F7E80830895A1
:1008F000EBE0F1E080818F7B808380818061808369
:100900000895EBE0F1E080818064808380818061E4
:100910008083C1CFCF93DF9300D00F92CDB7DEB7E6
:10092000282F392F203131050CF041C0C901330F78
:10093000AA0BBB0B89839A83AB83BC83BC01CD011B
:100940000E947D0B262F372F482F592F60E070E033
:1009500080E791E40E94660A20E030E040E751E43D
:1009600069837A838B839C8369817A818B819C8163
:100970000E94D30A362F272F432F522F682F792F0B
:100980004093220250932302609324027093250225
:1009900039832A838B839C8369817A818B819C81B3
:1009A0000F900F900F900F90DF91CF91089530E04E
:1009B00020E080E090E0E0CFCF93DF9300D00F9273
:1009C000CDB7DEB7282F392F203131050CF041C0CB
:1009D000C901330FAA0BBB0B89839A83AB83BC83FA
:1009E000BC01CD010E947D0B262F372F482F592F98
:1009F00060E070E080E791E40E94660A20E030E069
:100A000040E751E469837A838B839C8369817A818F
:100A10008B819C810E94D30A362F272F432F522F80
:100A2000682F792F40931E0250931F02609320027B
:100A30007093210239832A838B839C8369817A8115
:100A40008B819C810F900F900F900F90DF91CF9131
:100A5000089530E020E080E090E0E0CFCF93DF9396
:100A600000D00F92CDB7DEB70197D9F061E070E00A
:100A700080E090E00E943A0460E070E080E090E066
:100A80000E943A0460E070E080E89FE30E940A045C
:100A900060E070E080E89FE30E94DA031A82198226
:100AA0000BC02A982998E2CF89819A8101969A836E
:100AB000898302970CF06FC00E94BD0890931D02BD
:100AC00080931C020E94BD0890931D0280931C021B
:100AD0000E945B0890931B0280931A0280911C0273
:100AE00090911D020E9449090E945B084F97E0F611
:100AF0000E94BD084F97C0F680911C0290911D0284
:100B000020911A0230911B022817390770F080914A
:100B10001A0290911B0220911C0230911D0228178D
:100B2000390700F11A821982C7CF821B930B909369
:100B300019028093180260E070E080E89FE30E9451
:100B40000A0480911802909119020E948A04698314
:100B50007A838B839C8369817A818B819C810E94BB
:100B6000DA03D5CF821B930B90931902809318025E
:100B70000E94DC0469837A838B839C8369817A81F8
:100B80008B819C810E940A0460E070E080E89FE312
:100B90000E94DA03C7CF0F900F900F900F90DF9154
:100BA000CF910895282F392F2115310599F0213043
:100BB0003105E9F086E290E041E0E4E9F0E026E981
:100BC00037EEC09BFECF01970097F1F048BB318311
:100BD0002083F7CF6AE979E989ED9FE30E940A044F
:100BE0006DEC7CEC8CE49FE30E94DA03E3CF6DECC8
:100BF0007CEC8CE49FE30E940A046AE979E989EDC0
:100C00009FE30E94DA03D6CF60E070E0CB010E9440
:100C10000A0460E070E0CB010E94DA0308952F928D
:100C20003F924F925F926F927F928F929F92BF926C
:100C3000CF92DF92EF92FF920F931F93CF93DF93A8
:100C400004E910E00F2EF6E9EF2EF7EEFF2EF02D5F
:100C50000F2EF0E92F2E312CF02D0F2EF1E94F2E13
:100C6000512CF02DC2EBD0E00F2EF6E0CF2EF02D60
:100C70000F2EF0EB6F2E712CF02D0F2EF1EB8F2E2F
:100C8000912CF02D0F2EF3E0BF2EF02DDD24D39408
:100C90001BC060E070E080E89FE30E940A0460E00F
:100CA00070E080E89FE30E94DA03C8828CE291E062
:100CB000B89BFECF0197009719F0D7BAC882F8CF3A
:100CC0000E94BD08449720F1F801F182E082F10111
:100CD000108284E0F2018083C882F3011082F40163
:100CE000B08260E070E0CB010E940A0460E070E036
:100CF00080E89FE30E94DA0385E090E0C09BFECF8E
:100D00000197009731F2D8BAF801F182E082F6CF6C
:100D1000DF91CF911F910F91FF90EF90DF90CF90D7
:100D2000BF909F908F907F906F905F904F903F907B
:100D30002F9008952F923F924F925F926F927F92E1
:100D40008F929F92BF92CF92DF92EF92FF920F937A
:100D50001F93CF93DF9304E910E00F2EF6E9EF2EF7
:100D6000F7EEFF2EF02D0F2EF0E92F2E312CF02D67
:100D70000F2EF1E94F2E512CF02DC2EBD0E00F2EAB
:100D8000F6E0CF2EF02D0F2EF0EB6F2E712CF02D04
:100D90000F2EF1EB8F2E912CF02D0F2EF3E0BF2EA6
:100DA000F02DDD24D3941BC060E070E080E89FE369
:100DB0000E940A0460E070E080E89FE30E94DA038A
:100DC000C8828CE291E0B89BFECF0197009719F0A2
:100DD000D7BAC882F8CF0E945B08449720F1F80187
:100DE000F182E082F101108284E0F2018083C88206
:100DF000F3011082F401B08260E070E080E89FE3CC
:100E00000E940A0460E070E0CB010E94DA0385E0F2
:100E100090E0C09BFECF0197009731F2D8BAF8015D
:100E2000F182E082F6CFDF91CF911F910F91FF9079
:100E3000EF90DF90CF90BF909F908F907F906F90BA
:100E40005F904F903F902F9008952F923F924F9236
:100E50005F926F927F928F929F92BF92CF92DF921A
:100E6000EF92FF920F931F93CF93DF9304E910E06B
:100E70000F2EF6E9EF2EF7EEFF2EF02D0F2EF0E9F4
:100E80002F2E312CF02D0F2EF1E94F2E512CF02D5D
:100E9000C2EBD0E00F2EF6E0CF2EF02D0F2EF0EBB0
:100EA0006F2E712CF02D0F2EF1EB8F2E912CF02D3B
:100EB0000F2EF3E0BF2EF02DDD24D3941BC060E095
:100EC00070E080E89FE30E940A0460E070E080E840
:100ED0009FE30E94DA03C8828EE591E0B89BFECFC3
:100EE0000197009719F0D7BAC882F8CF0E945B0823
:100EF000449720F1F801F182E082F101108284E050
:100F0000F2018083C882F3011082F401B08260E0B4
:100F100070E080E89FE30E940A0460E070E0CB018B
:100F20000E94DA0385E090E0C09BFECF0197009716
:100F300031F2D8BAF801F182E082F6CFDF91CF9199
:100F40001F910F91FF90EF90DF90CF90BF909F90F7
:100F50008F907F906F905F904F903F902F9008956B
:100F6000CF92DF92EF92FF920F931F93CF93DF9375
:100F70000E94340120E030E080E090E071E060E029
:100F800002E010E0D3E0C0E06894DD24D2F8C12C88
:100F9000F0E0E0E00F2EF5E0EF2EF02DF12C1FC079
:100FA0004F2F5E2F05990AC0009741F0AFE1BEE4D4
:100FB0001197F1F700C00000472F562F009908C085
:100FC000019906C0029904C0039902C0049B04C0A1
:100FD0002130310509F45DC0452B09F063C000994B
:100FE0000DC02115310551F48FE19EE40197F1F711
:100FF00000C00000272F362F872F962F01990DC094
:101000002115310551F4AFE1BEE41197F1F700C0AD
:101010000000272F362F802F912F02990DC0211508
:10102000310551F48FE19EE40197F1F700C0000013
:10103000272F362F8D2F9C2F03990DC02115310599
:1010400051F4AFE1BEE41197F1F700C00000272F83
:10105000362F8D2D9C2D0499A3CF2115310509F034
:101060009FCF8FE19EE40197F1F700C00000059B40
:1010700008C000990BC0A90121E030E085E090E0B4
:101080009FCF272F362F8E2D9F2D90CFA90185E042
:1010900090E0AFE1BEE41197F1F700C000002F2F00
:1010A0003E2F9ACFDF91CF911F910F91FF90EF903C
:1010B000DF90CF900895CF93DF9300D00F92CDB7FC
:1010C000DEB74698469A25E32A95F1F70000469840
:1010D00080E197E2A0E0B0E0379905C00197A1094F
:1010E000B109D0F705C0892B8A2B8B2B09F442C09C
:1010F000109285001092840082E080938100E4E8E1
:10110000F0E0379B05C08081918180349C49C8F311
:101110001092810080918400909185009C0140E0B4
:1011200050E029833A834B835C83CA01B9010E9452
:101130007B0B28E23EE74CE05CE369837A838B8398
:101140009C8369817A818B819C810E94090C6983CF
:101150007A838B839C8369817A818B819C810E94B5
:101160004C0B862F972F0F900F900F900F90DF91C1
:10117000CF91089587EE93E0F6CFCF93DF9300D021
:101180000F92CDB7DEB71798179A25E32A95F1F796
:101190000000179880E197E2A0E0B0E0069905C052
:1011A0000197A109B109D0F705C0892B8A2B8B2B98
:1011B00009F442C0109285001092840082E080936E
:1011C0008100E4E8F0E0069B05C0808191818034D5
:1011D0009C49C8F310928100809184009091850011
:1011E0009C0140E050E029833A834B835C83CA0131
:1011F000B9010E947B0B28E23EE74CE05CE3698387
:101200007A838B839C8369817A818B819C810E9404
:10121000090C69837A838B839C8369817A818B81B2
:101220009C810E944C0B862F972F0F900F900F9050
:101230000F90DF91CF91089587EE93E0F6CF28E0ED
:1012400030E0E2E0F1E00FC090819F7D9083880F55
:1012500090819061908390819F7E9083215031098D
:101260002115310531F088237CF7908190629083BD
:10127000EECF0895CF93C62F0E941F0981E001C0D1
:10128000880FCA95EAF70E941F09A59AA598CF91E1
:101290000895CF93DF93C82FD92F9E01ADECBCECFE
:1012A0000E94430A9C0136952795369527953695D9
:1012B0002795C901880F991F880F991F820F931FC7
:1012C000880F991FFE01E81BF90BE45FFD4F63E0F7
:1012D00070E080810E943A0987EE93E00197F1F770
:1012E00000C000009E01ADECBCEC0E94430AEC0182
:1012F000D695C795D695C795D695C7959E010E9458
:10130000430A9C013695279536952795369527955E
:10131000C901880F991F880F991F820F931F880F8B
:10132000991FFE01E81BF90BE45FFD4F62E070E0DE
:1013300080810E943A0987EE93E00197F1F700C09F
:1013400000009E01ADECBCEC0E94430AEC01D69576
:10135000C795D695C795D695C7959E010E94430A15
:101360009C01369527953695279536952795C90181
:10137000880F991F880F991F820F931F880F991F3D
:10138000FE01E81BF90BE45FFD4F61E070E0808136
:101390000E943A0987EE93E00197F1F700C0000040
:1013A0009E01ADECBCEC0E94430AAC0156954795FA
:1013B00056954795569547959A010E94430A9C0178
:1013C000369527953695279536952795C901880F27
:1013D000991F880F991F820F931F880F991F481B11
:1013E000590BFA01E45FFD4F60E070E080810E94DC
:1013F0003A0987EE93E00197F1F700C00000DF9112
:10140000CF91089560E070E087E80E943A098FE08C
:1014100097E20197F1F700C0000061E070E083EE11
:101420000E943A098FE097E20197F1F700C00000AF
:1014300062E070E08FEA0E943A098FE097E201973C
:10144000F1F700C0000063E070E081EA0E943A0911
:101450008FE097E20197F1F700C00000089597FB35
:10146000072E16F4009407D077FD09D00E94520A87
:1014700007FC05D03EF4909581959F4F0895709597
:1014800061957F4F0895A29FB001B39FC001A39FB4
:10149000700D811D1124911DB29F700D811D1124AD
:1014A000911D0895AA1BBB1B51E107C0AA1FBB1FBA
:1014B000A617B70710F0A61BB70B881F991F5A95E0
:1014C000A9F780959095BC01CD0108955058BB2790
:1014D000AA270E947E0A0C94CF0B0E94C10B38F001
:1014E0000E94C80B20F039F49F3F19F426F40C94A5
:1014F000BE0B0EF4E095E7FB0C94B80BE92F0E94AD
:10150000E00B58F3BA17620773078407950720F0BA
:1015100079F4A6F50C94020C0EF4E0950B2EBA2F7C
:10152000A02D0B01B90190010C01CA01A0011124E9
:10153000FF27591B99F0593F50F4503E68F11A1695
:10154000F040A22F232F342F4427585FF3CF469526
:1015500037952795A795F0405395C9F77EF41F1648
:10156000BA0B620B730B840BBAF09150A1F0FF0F12
:10157000BB1F661F771F881FC2F70EC0BA0F621FFE
:10158000731F841F48F4879577956795B795F795EE
:101590009E3F08F0B0CF9395880F08F09927EE0F83
:1015A0009795879508950E94E70A0C94CF0B0E94A7
:1015B000C80B58F00E94C10B40F029F45F3F29F09E
:1015C0000C94B80B51110C94030C0C94BE0B0E949C
:1015D000E00B68F39923B1F3552391F3951B550B59
:1015E000BB27AA2762177307840738F09F5F5F4FF6
:1015F000220F331F441FAA1FA9F335D00E2E3AF035
:10160000E0E832D091505040E695001CCAF72BD04C
:10161000FE2F29D0660F771F881FBB1F261737079D
:101620004807AB07B0E809F0BB0B802DBF01FF27CF
:1016300093585F4F3AF09E3F510578F00C94B80BE9
:101640000C94030C5F3FE4F3983ED4F386957795B2
:101650006795B795F7959F5FC9F7880F911D969588
:10166000879597F90895E1E0660F771F881FBB1FE4
:10167000621773078407BA0720F0621B730B840B91
:10168000BA0BEE1F88F7E09508950E944C0B689402
:10169000B1110C94030C08950E94E80B88F09F5739
:1016A00098F0B92F9927B751B0F0E1F0660F771F86
:1016B000881F991F1AF0BA95C9F714C0B13091F07C
:1016C0000E94020CB1E008950C94020C672F782F51
:1016D0008827B85F39F0B93FCCF386957795679541
:1016E000B395D9F73EF490958095709561957F4FAD
:1016F0008F4F9F4F0895E89409C097FB3EF4909553
:101700008095709561957F4F8F4F9F4F9923A9F0DA
:10171000F92F96E9BB279395F69587957795679569
:10172000B795F111F8CFFAF4BB0F11F460FF1BC0AD
:101730006F5F7F4F8F4F9F4F16C0882311F096E940
:1017400011C0772321F09EE8872F762F05C06623EE
:1017500071F096E8862F70E060E02AF09A95660FA7
:10176000771F881FDAF7880F9695879597F9089560
:1017700097F99F6780E870E060E008959FEF80EC44
:10178000089500240A9416161706180609060895E7
:1017900000240A9412161306140605060895092E4D
:1017A0000394000C11F4882352F0BB0F40F4BF2BBC
:1017B00011F460FF04C06F5F7F4F8F4F9F4F0895FC
:1017C00057FD9058440F551F59F05F3F71F04795F2
:1017D000880F97FB991F61F09F3F79F087950895D7
:1017E000121613061406551FF2CF4695F1DF08C0F6
:1017F000161617061806991FF1CF86957105610513
:1018000008940895E894BB2766277727CB0197F9BA
:1018100008950E941C0C0C94CF0B0E94C10B38F051
:101820000E94C80B20F0952311F00C94B80B0C9477
:10183000BE0B11240C94030C0E94E00B70F3959FD7
:10184000C1F3950F50E0551F629FF001729FBB27B7
:10185000F00DB11D639FAA27F00DB11DAA1F649F53
:101860006627B00DA11D661F829F2227B00DA11D06
:10187000621F739FB00DA11D621F839FA00D611D8C
:10188000221F749F3327A00D611D231F849F600DAD
:10189000211D822F762F6A2F11249F5750409AF0D6
:1018A000F1F088234AF0EE0FFF1FBB1F661F771F62
:1018B000881F91505040A9F79E3F510580F00C942D
:1018C000B80B0C94030C5F3FE4F3983ED4F3869579
:1018D00077956795B795F795E7959F5FC1F7FE2BCD
:1018E000880F911D9695879597F90895F894FFCFE5
:1018F000FEFF3F065B4F666D7D077F6FC0F9A4B0AA
:06190000999282F880902C
:00000001FF
