:100000000C9472000C9486000C9486000C9486006C
:100010000C9486000C9486000C9486000C94860048
:100020000C9486000C9486000C9486000C94860038
:100030000C9486000C9486000C9486000C94860028
:100040000C9486000C9486000C9486000C94860018
:100050000C9486000C9486000C9486000C94860008
:100060000C9486000C9486000C9486000C948600F8
:100070000C9486000C9486000C9486000C948600E8
:100080000C9486000C9486000C9486000C948600D8
:100090000C9486000C9486000C9486000C948600C8
:1000A0000C9486000C9486000C9486000C948600B8
:1000B0000C9486000C9486000C9486000C948600A8
:1000C0000C9486000C9486000C9486000C94860098
:1000D0000C9486000C9486000C9486000C94860088
:1000E0000C94860011241FBECFEFD1E2DEBFCDBF3E
:1000F00000E00CBF22E0A0E0B2E001C01D92A03100
:10010000B207E1F70E9409010C9402060C9400006A
:100110003F980E983E9A0F9A4798169808955298CD
:1001200051986D986C980895089809980A980B98BA
:100130000C980D9810981198129813981498159877
:100140000895229A219A209A2A9829982898089501
:10015000E1E0F1E0808188608083AAE0B1E08C91E9
:1001600088608C93E2E0F1E08081877F8083EBE020
:10017000F1E08081877F80838C9180648C938C9167
:1001800080618C938C9184608C938C9181608C9332
:1001900080818F7B808380818F7E808380818B7F35
:1001A000808380818E7F808308955098089520E415
:1001B0003CE9309327012093260192E89093200197
:1001C00089E1809321013093A7002093A6009093AA
:1001D000A0008093A10008958CED9BE09093850092
:1001E000809384001092800084E0809381000895C1
:1001F0000E9488000E948F000E9494000E94A1002B
:100200000E94A8000E94D5000E94D7000E94EC0026
:1002100008950E94F80060E070E080E89FE30E948B
:100220004F0160E070E080E89FE30E941F0161E001
:1002300070E080E090E00E947F01FFCF0895CF93AF
:10024000DF9300D00F92CDB7DEB720E030E64AEE64
:1002500056E469837A838B839C8369817A818B815D
:100260009C810E94950569837A838B839C83698135
:100270007A818B819C810E94D104862F972F9923AC
:100280005CF09093A9008093A8000F900F900F90BE
:100290000F90DF91CF91089580E49CE9F2CFCF9346
:1002A000DF9300D00F92CDB7DEB720E030E64AEE04
:1002B00056E469837A838B839C8369817A818B81FD
:1002C0009C810E94950569837A838B839C836981D5
:1002D0007A818B819C810E94D104862F972F99234C
:1002E0005CF090932901809328010F900F900F905C
:1002F0000F90DF91CF91089580E49CE9F2CF282FF1
:10030000392F862F972F8130910559F0892B41F491
:100310002130310591F122303105C1F1232B21F13A
:1003200008952130310571F022303105A1F0232BE1
:10033000B9F7EBE0F1E080818460808380818E7F7B
:1003400080830895EBE0F1E080818B7F8083808162
:10035000816080830895EBE0F1E080818460808398
:100360008081816080830895EBE0F1E0808180648A
:10037000808380818F7E80830895EBE0F1E080812F
:100380008F7B80838081806180830895EBE0F1E042
:10039000808180648083808180618083C1CF089563
:1003A000CF93DF9300D00F92CDB7DEB7282F392F30
:1003B000203131050CF041C0C901330FAA0BBB0B32
:1003C00089839A83AB83BC83BC01CD010E9409055C
:1003D000262F372F482F592F60E070E080E791E4F7
:1003E0000E94F20320E030E040E751E469837A8321
:1003F0008B839C8369817A818B819C810E945F04BD
:10040000362F272F432F522F682F792F40930C021E
:1004100050930D0260930E0270930F0239832A836A
:100420008B839C8369817A818B819C810F900F9053
:100430000F900F90DF91CF91089530E020E080E0A1
:1004400090E0E0CFCF93DF9300D00F92CDB7DEB72F
:10045000282F392F203131050CF041C0C901330F4D
:10046000AA0BBB0B89839A83AB83BC83BC01CD01F0
:100470000E940905262F372F482F592F60E070E082
:1004800080E791E40E94F20320E030E040E751E48D
:1004900069837A838B839C8369817A818B819C8138
:1004A0000E945F04362F272F432F522F682F792F5A
:1004B000409308025093090260930A0270930B0262
:1004C00039832A838B839C8369817A818B819C8188
:1004D0000F900F900F900F90DF91CF91089530E023
:1004E00020E080E090E0E0CFCF93DF9300D00F9248
:1004F000CDB7DEB70E949003909307028093060267
:100500000E942E03282F392F3093050220930402D6
:100510008091020290910302AC014F5F5F4F5093B4
:1005200003024093020240972CF3809106029091BF
:10053000070228173907BCF1821793070CF050C047
:10054000A901481B590BCA015093010240930002B4
:100550000E94220269837A838B839C8369817A81DA
:100560008B819C810E944F0160E070E080E89FE3F6
:100570000E941F0180910402909105028536910529
:100580003CF480910602909107028536910534F083
:1005900087EE93E090930102809300021092030291
:1005A00010920202A7CF821B930B909301028093BB
:1005B000000260E070E080E89FE30E944F018091BC
:1005C0000002909101020E94D00169837A838B839B
:1005D0009C8369817A818B819C810E941F01CACF93
:1005E000109201021092000260E070E080E89FE348
:1005F0000E944F0160E070E080E89FE30E941F01CD
:10060000B9CF80E090E0F1E0E0E072E060E053E03C
:1006100040E034E020E0B5E0A0E002C00097A9F49B
:10062000009902C08F2F9E2F019902C0872F962F0D
:10063000029902C0852F942F039902C0832F922F15
:10064000049B07C0059BEACFEBCF089585E090E0BF
:100650000895059BFBCF8B2F9A2FE2CFCF93DF938B
:1006600000D00F92CDB7DEB74698469A25E32A957B
:10067000F1F70000469880E197E2A0E0B0E03799FA
:1006800005C00197A109B109D0F705C0892B8A2BB4
:100690008B2B09F442C0109285001092840082E0F6
:1006A00080938100E4E8F0E0379B05C08081918170
:1006B00080349C49C8F3109281008091840090910D
:1006C00085009C0140E050E029833A834B835C83A2
:1006D000CA01B9010E94070528E23EE74CE05CE34D
:1006E00069837A838B839C8369817A818B819C81E6
:1006F0000E94950569837A838B839C8369817A81C3
:100700008B819C810E94D804862F972F0F900F9089
:100710000F900F90DF91CF91089587EE93E0F6CF81
:10072000CF93DF9300D00F92CDB7DEB71798179A0B
:1007300025E32A95F1F70000179880E197E2A0E001
:10074000B0E0069905C00197A109B109D0F705C02D
:10075000892B8A2B8B2B09F442C0109285001092B2
:10076000840082E080938100E4E8F0E0069B05C00D
:100770008081918180349C49C8F3109281008091DE
:100780008400909185009C0140E050E029833A83E9
:100790004B835C83CA01B9010E94070528E23EE74A
:1007A0004CE05CE369837A838B839C8369817A81E3
:1007B0008B819C810E94950569837A838B839C83BE
:1007C00069817A818B819C810E94D804862F972F22
:1007D0000F900F900F900F90DF91CF91089587EEBB
:1007E00093E0F6CF5058BB27AA270E940A040C9426
:1007F0005B050E944D0538F00E94540520F039F445
:100800009F3F19F426F40C944A050EF4E095E7FB9B
:100810000C944405E92F0E946C0558F3BA1762073F
:1008200073078407950720F079F4A6F50C948E05DC
:100830000EF4E0950B2EBA2FA02D0B01B9019001FB
:100840000C01CA01A0011124FF27591B99F0593F3F
:1008500050F4503E68F11A16F040A22F232F342F87
:100860004427585FF3CF469537952795A795F040D5
:100870005395C9F77EF41F16BA0B620B730B840BEA
:10088000BAF09150A1F0FF0FBB1F661F771F881FA2
:10089000C2F70EC0BA0F621F731F841F48F48795FA
:1008A00077956795B795F7959E3F08F0B0CF9395EC
:1008B000880F08F09927EE0F9795879508950E9465
:1008C00073040C945B050E94540558F00E944D057A
:1008D00040F029F45F3F29F00C94440551110C9429
:1008E0008F050C944A050E946C0568F39923B1F3B7
:1008F000552391F3951B550BBB27AA276217730746
:10090000840738F09F5F5F4F220F331F441FAA1FD9
:10091000A9F335D00E2E3AF0E0E832D09150504095
:10092000E695001CCAF72BD0FE2F29D0660F771F43
:10093000881FBB1F261737074807AB07B0E809F029
:10094000BB0B802DBF01FF2793585F4F3AF09E3FAE
:10095000510578F00C9444050C948F055F3FE4F347
:10096000983ED4F3869577956795B795F7959F5FF1
:10097000C9F7880F911D9695879597F90895E1E03D
:10098000660F771F881FBB1F621773078407BA079C
:1009900020F0621B730B840BBA0BEE1F88F7E095F7
:1009A00008950E94D8046894B1110C948F0508959D
:1009B0000E94740588F09F5798F0B92F9927B75176
:1009C000B0F0E1F0660F771F881F991F1AF0BA95F3
:1009D000C9F714C0B13091F00E948E05B1E00895BE
:1009E0000C948E05672F782F8827B85F39F0B93FB0
:1009F000CCF3869577956795B395D9F73EF49095A6
:100A00008095709561957F4F8F4F9F4F0895E89423
:100A100009C097FB3EF490958095709561957F4F46
:100A20008F4F9F4F9923A9F0F92F96E9BB279395F4
:100A3000F695879577956795B795F111F8CFFAF404
:100A4000BB0F11F460FF1BC06F5F7F4F8F4F9F4F35
:100A500016C0882311F096E911C0772321F09EE893
:100A6000872F762F05C0662371F096E8862F70E0F9
:100A700060E02AF09A95660F771F881FDAF7880FD3
:100A80009695879597F9089597F99F6780E870E0A4
:100A900060E008959FEF80EC089500240A941616F4
:100AA000170618060906089500240A94121613065C
:100AB000140605060895092E0394000C11F48823EA
:100AC00052F0BB0F40F4BF2B11F460FF04C06F5F06
:100AD0007F4F8F4F9F4F089557FD9058440F551FDC
:100AE00059F05F3F71F04795880F97FB991F61F0B0
:100AF0009F3F79F087950895121613061406551F27
:100B0000F2CF4695F1DF08C0161617061806991F92
:100B1000F1CF86957105610508940895E894BB2787
:100B200066277727CB0197F908950E94A8050C94B2
:100B30005B050E944D0538F00E94540520F0952376
:100B400011F00C9444050C944A0511240C948F0563
:100B50000E946C0570F3959FC1F3950F50E0551FEF
:100B6000629FF001729FBB27F00DB11D639FAA2702
:100B7000F00DB11DAA1F649F6627B00DA11D661F51
:100B8000829F2227B00DA11D621F739FB00DA11D72
:100B9000621F839FA00D611D221F749F3327A00D2C
:100BA000611D231F849F600D211D822F762F6A2FC8
:100BB00011249F5750409AF0F1F088234AF0EE0F2D
:100BC000FF1FBB1F661F771F881F91505040A9F75A
:100BD0009E3F510580F00C9444050C948F055F3FB7
:100BE000E4F3983ED4F3869577956795B795F79596
:100BF000E7959F5FC1F7FE2B880F911D969587950E
:080C000097F90895F894FFCF65
:00000001FF
