:100000000C9472000C947E000C947E000C947E0084
:100010000C947E000C947E000C947E000C947E0068
:100020000C947E000C947E000C947E000C947E0058
:100030000C947E000C947E000C947E000C947E0048
:100040000C947E000C947E000C947E000C947E0038
:100050000C947E000C947E000C947E000C947E0028
:100060000C947E000C947E000C947E000C947E0018
:100070000C947E000C947E000C947E000C947E0008
:100080000C947E000C947E000C947E000C947E00F8
:100090000C947E000C947E000C947E000C947E00E8
:1000A0000C947E000C947E000C947E000C947E00D8
:1000B0000C947E000C947E000C947E000C947E00C8
:1000C0000C947E000C947E000C947E000C947E00B8
:1000D0000C947E000C947E000C947E000C947E00A8
:1000E0000C947E0011241FBECFEFD1E2DEBFCDBF46
:1000F00000E00CBF0E94D2000C94D5000C940000CC
:100100003F9A0E9A3F980E983E980F9808955298ED
:1001100051986D986C980895089809980A980B98CA
:100120000C980895229A219A209A2A98299828981A
:100130000895EAE0F1E080818062808380818860B8
:100140008083ABE0B1E08C918F7D8C938C91877F25
:100150008C9380818F7B808380818F7E8083808160
:100160008B7F808380818E7F80830895509808954F
:1001700080E49CE9909327018093260182E8809394
:10018000200189E18093210108950E9480000E944E
:1001900087000E948C000E9492000E9499000E9499
:0E01A000B60008950E94C500FFCFF894FFCF6F
:00000001FF
