:100000000C9472000C9493000C9427010C9428011A
:100010000C9493000C9481020C94AD020C94930008
:100020000C9493000C9493000C9493000C94930004
:100030000C9493000C9493000C9493000C949300F4
:100040000C9493000C9493000C9493000C949300E4
:100050000C9493000C9493000C9493000C949300D4
:100060000C9493000C9493000C9493000C949300C4
:100070000C9493000C9493000C9493000C949300B4
:100080000C9493000C9493000C9493000C949300A4
:100090000C9493000C9493000C9493000C94930094
:1000A0000C9493000C9493000C9493000C94930084
:1000B0000C9493000C9493000C9493000C94930074
:1000C0000C9493000C9493000C9493000C94930064
:1000D0000C9493000C9493000C9493000C94930054
:1000E0000C94930011241FBECFEFD1E2DEBFCDBF31
:1000F00000E00CBF12E0A0E0B2E0E0EFF3E100E0CE
:100100000BBF02C007900D92A431B107D9F722E0CE
:10011000A4E1B2E001C01D92AE33B207E1F70E9444
:100120001D010C94F6090C9400003F980E983E9A1D
:100130000F9A479816980895529851986D986C9810
:100140000895089809980A980B980C980D98109A99
:10015000119A129A139A149A159A0895229A219A2A
:10016000209A2A9A299A289A0895E1E0F1E080815C
:1001700088608083AAE0B1E08C9188608C93E2E093
:10018000F1E08081877F8083EBE0F1E08081877FF1
:1001900080838C9180648C938C9180618C938C9102
:1001A00084608C938C9181608C9380818F7B808321
:1001B00080818F7E808380818B7F808380818E7F12
:1001C000808308955098089520E43CE930932701F6
:1001D0002093260192E8909320018AE180932101E7
:1001E0003093A7002093A6009093A0008093A100D5
:1001F0000895E1E0F1E08081806380839D9AA59875
:10020000089586E98093B2001092B00084E0809354
:10021000B10008950E9495000E949C000E94A100D8
:100220000E94AE000E94B5000E94E2000E94E4001D
:100230000E9401010E94F90008950E940A0180E0D5
:1002400090E00E942D040E948807FDCF0895189524
:10025000189580E090E0089583E084BB08952A9A81
:1002600008952A98089560E070E0CB010E94D902B9
:1002700060E070E0CB010E940903089560E070E047
:1002800080E89FE30E94D90260E070E080E89FE38D
:100290000E94090308958091140290911502A09183
:1002A0001602B0911702B095A095909581959F4F39
:1002B000AF4FBF4F843F9140A105B105B0F0809191
:1002C000180290911902892B89F40E942F0181E074
:1002D00090E09093190280931802109214021092E9
:1002E0001502109216021092170208950E94310111
:1002F0001092190210921802F0CF81B18F6381B968
:1003000084B1866084B983B3836083BBE9E6F0E09F
:1003100080818C638083EAE6F0E080818F60808357
:100320008DB386638DBB0E943101789408958091CE
:10033000220290912302892BD1F08091200290918A
:100340002102892BA1F48091240290912502A09191
:100350002602B0912702B095A095909581959F4F68
:10036000AF4FBF4F803D9740A105B10538F4809154
:10037000200290912102892B51F4089510922302BA
:10038000109222020E9431010E943E01F0CF0E9491
:100390004B01F3CF282F392F22303105B1F0233014
:1003A0003105C1F02130310519F080E090E0089569
:1003B00081E090E090932D0280932C0260932A02BA
:1003C00070932B0280E090E0089580912C02909130
:1003D0002D02089580912A0290912B020895BF92D8
:1003E000CF92DF92EF92FF920F931F93CF93DF9301
:1003F000E82EF92E9B01770F440B550B64E274EF46
:1004000080E090E00E94B50700271127021B130B24
:100410001093850000938400C0E0D0E0BB24B39427
:100420000F2EF4E8CF2ED12CF02D02C00E94330104
:10043000B09BFCCF2196B6BAF601118300830E94CF
:100440003301CE15DF05A4F3DF91CF911F910F91FA
:10045000FF90EF90DF90CF90BF900895019709F043
:1004600008958091220290912302892BC9F78091EF
:100470001A0290911B02892B99F78091200290918A
:100480002102892B69F780911C0290911D02A09195
:100490001E02B0911F02B095A095909581959F4F37
:1004A000AF4FBF4FC397A105B105D0F2809128028D
:1004B00090912902019690932902809328020E942C
:1004C00033012A9A80912802909129020E94CF0636
:1004D00061E070E082E090E00E94EF01209128024C
:1004E0003091290280912A0290912B022817390716
:1004F0000CF4B6CF81E090E090932102809320022B
:10050000AFCF1F920F920FB60F9211240BB60F921E
:100510002F933F934F935F936F937F938F939F930B
:10052000AF93BF93EF93FF9380912C0290912D0294
:100530000E942E02FF91EF91BF91AF919F918F91F9
:100540007F916F915F914F913F912F910F900BBED3
:100550000F900FBE0F901F9018951F920F920FB61D
:100560000F9211240BB60F922F933F934F935F93EB
:100570006F937F938F939F93AF93BF93EF93FF936B
:1005800080912C0290912D020E942E02FF91EF91FA
:10059000BF91AF919F918F917F916F915F914F919B
:1005A0003F912F910F900BBE0F900FBE0F901F9099
:1005B0001895CF93DF9300D00F92CDB7DEB720E030
:1005C00030E44CE956E469837A838B839C836981A8
:1005D0007A818B819C810E94890969837A838B83CC
:1005E0009C8369817A818B819C810E94C508862FBA
:1005F000972F99235CF09093A9008093A8000F9007
:100600000F900F900F90DF91CF91089580E49CE9B7
:10061000F2CFCF93DF9300D00F92CDB7DEB720E0BB
:1006200030E44CE956E469837A838B839C83698147
:100630007A818B819C810E94890969837A838B836B
:100640009C8369817A818B819C810E94C508862F59
:10065000972F99235CF090932901809328010F90A4
:100660000F900F900F90DF91CF91089580E49CE957
:10067000F2CF282F392F862F972F8130910559F0EF
:10068000892B41F42130310591F122303105C1F13E
:10069000232B21F108952130310571F022303105ED
:1006A000A1F0232BB9F7EBE0F1E080818460808337
:1006B00080818E7F80830895EBE0F1E080818B7FE5
:1006C00080838081816080830895EBE0F1E0808108
:1006D000846080838081816080830895EBE0F1E015
:1006E00080818064808380818F7E80830895EBE0A9
:1006F000F1E080818F7B8083808180618083089599
:10070000EBE0F1E080818064808380818061808380
:10071000C1CFCF93DF9300D00F92CDB7DEB7282F94
:10072000392F203131050CF041C0C901330FAA0B1C
:10073000BB0B89839A83AB83BC83BC01CD010E9430
:10074000FD08262F372F482F592F60E070E080E7F3
:1007500091E40E94E60720E030E040E751E469833D
:100760007A838B839C8369817A818B819C810E94AF
:100770005308362F272F432F522F682F792F40935E
:100780003A0250933B0260933C0270933D023983DE
:100790002A838B839C8369817A818B819C810F90D2
:1007A0000F900F900F90DF91CF91089530E020E0EF
:1007B00080E090E0E0CFCF93DF9300D00F92CDB7F1
:1007C000DEB7282F392F203131050CF041C0C90187
:1007D000330FAA0BBB0B89839A83AB83BC83BC0109
:1007E000CD010E94FD08262F372F482F592F60E09A
:1007F00070E080E791E40E94E60720E030E040E707
:1008000051E469837A838B839C8369817A818B81AC
:100810009C810E945308362F272F432F522F682F79
:10082000792F4093360250933702609338027093C9
:10083000390239832A838B839C8369817A818B81F6
:100840009C810F900F900F900F90DF91CF910895A2
:1008500030E020E080E090E0E0CF0F931F93CF9353
:10086000DF9300D000D0CDB7DEB78D839E8361E0EB
:1008700070E080E090E00E94390360E070E080E08A
:1008800090E00E94390360E070E080E89FE30E94FE
:10089000090360E070E080E89FE30E94D902809144
:1008A00030029091310206970CF0A9C007EE13E0D8
:1008B0003FC00E9443068536910528F08D819E81B8
:1008C000019709F45CC010923102109230028091BD
:1008D0003202909133022091340230913502281770
:1008E00039070CF456C08091340290913502209162
:1008F000320230913302281739070CF467C0809117
:10090000340290913502853691053CF48091320293
:10091000909133028536910524F010932F020093B5
:100920002E02809130029091310206970CF067C040
:1009300080913402909135020E94CF060E944306B6
:1009400090933302809332020E94E1059093350226
:10095000809334020E94E1058536910508F4A9CF01
:100960008D819E81892B09F0A4CF809130029091D6
:10097000310201969093310280933002D2CF809160
:1009800030029091310201969093310280933002AF
:10099000C8CF821B930B90932F0280932E0260E0AE
:1009A00070E080E89FE30E94090380912E029091FD
:1009B0002F020E94890369837A838B839C836981D8
:1009C0007A818B819C810E94D9028DCF821B930BEF
:1009D00090932F0280932E020E94DB0369837A8317
:1009E0008B839C8369817A818B819C810E9409031E
:1009F00060E070E080E89FE30E94D90280CF0F9012
:100A00000F900F900F900F900F90DF91CF911F914B
:100A10000F910895282F392F2115310599F0213094
:100A20003105E9F086E290E041E0E4E8F0E026E913
:100A300037EEB09BFECF01970097F1F046BB3183B4
:100A40002083F7CF60E070E080E89FE30E94090315
:100A50006BED76EB8DEE9EE30E94D902E3CF6BED5A
:100A600076EB8DEE9EE30E94090360E070E080E883
:100A70009FE30E94D902D6CF0895CF92DF92EF92E2
:100A8000FF920F931F93CF93DF930E940A0121E0FF
:100A900030E080E090E071E060E06894CC24C1F840
:100AA000D12C0F2EF3E0EF2EF02DF12C04E010E00E
:100AB000D5E0C0E0B0E0A0E007C02130310509F486
:100AC0006EC0452B09F074C0009910C02115310586
:100AD00069F48FE19EE40197F1F700C000002F98C0
:100AE0002E9A2D9A272F362F872F962F019910C0D7
:100AF0002115310569F4EFE1FEE43197F1F700C00B
:100B000000002E982F9A2D9A272F362F8C2D9D2D51
:100B1000029910C02115310569F48FE19EE4019717
:100B2000F1F700C000002D982F9A2E9A272F362F0C
:100B30008E2D9F2D03990DC02115310551F4EFE144
:100B4000FEE43197F1F700C00000272F362F802FE9
:100B5000912F04990DC02115310551F48FE19EE4C8
:100B60000197F1F700C00000272F362F8D2F9C2F03
:100B70004B2F5A2F059908C0F72FE62F009711F435
:100B8000FB2FEA2F4F2F5E2F009997CF019995CF1A
:100B9000029993CF039991CF049B93CF8ECFEFE12E
:100BA000FEE43197F1F700C000002B2F3A2F89CFD8
:100BB000DF91CF911F910F91FF90EF90DF90CF9039
:100BC0000895CF93DF9300D00F92CDB7DEB746984C
:100BD000469A25E32A95F1F70000469880E197E2CE
:100BE000A0E0B0E0379905C00197A109B109D0F79D
:100BF00005C0892B8A2B8B2B09F442C010928500EB
:100C00001092840082E080938100E4E8F0E0379B5A
:100C100005C08081918180349C49C8F31092810085
:100C200080918400909185009C0140E050E02983F0
:100C30003A834B835C83CA01B9010E94FB0828E216
:100C40003EE74CE05CE369837A838B839C83698114
:100C50007A818B819C810E94890969837A838B8345
:100C60009C8369817A818B819C810E94CC08862F2C
:100C7000972F0F900F900F900F90DF91CF910895C5
:100C800087EE93E0F6CFCF93DF9300D00F92CDB7EE
:100C9000DEB71798179A25E32A95F1F70000179801
:100CA00080E197E2A0E0B0E0069905C00197A109B4
:100CB000B109D0F705C0892B8A2B8B2B09F442C0D0
:100CC000109285001092840082E080938100E4E815
:100CD000F0E0069B05C08081918180349C49C8F377
:100CE0001092810080918400909185009C0140E0E9
:100CF00050E029833A834B835C83CA01B9010E9487
:100D0000FB0828E23EE74CE05CE369837A838B834F
:100D10009C8369817A818B819C810E948909698386
:100D20007A838B839C8369817A818B819C810E94E9
:100D3000CC08862F972F0F900F900F900F90DF9178
:100D4000CF91089587EE93E0F6CF28E030E0E2E01F
:100D5000F1E00FC090819F7D9083880F908190611A
:100D6000908390819F7E9083215031092115310518
:100D700031F088237CF7908190629083EECF0895C4
:100D8000CF93C62F0E94A50681E001C0880FCA95A7
:100D9000EAF70E94A506A59AA598CF910895CF934A
:100DA000DF93C82FD92F9E01ADECBCEC0E94D70772
:100DB0009C01369527953695279536952795C90137
:100DC000880F991F880F991F820F931F880F991FF3
:100DD000FE01E81BF90BE65FFD4F63E070E08081E8
:100DE0000E94C0068FE19EE40197F1F700C0000069
:100DF0009E01ADECBCEC0E94D707EC01D695C795DF
:100E0000D695C795D695C7959E010E94D7079C0198
:100E1000369527953695279536952795C901880FDC
:100E2000991F880F991F820F931F880F991FFE012A
:100E3000E81BF90BE65FFD4F62E070E080810E94E5
:100E4000C0068FE19EE40197F1F700C000009E010B
:100E5000ADECBCEC0E94D707EC01D695C795D695B2
:100E6000C795D695C7959E010E94D7079C013695D8
:100E700027953695279536952795C901880F991F8F
:100E8000880F991F820F931F880F991FFE01E81B7F
:100E9000F90BE65FFD4F61E070E080810E94C006C3
:100EA0008FE19EE40197F1F700C000009E01ADECD8
:100EB000BCEC0E94D707AC015695479556954795CF
:100EC000569547959A010E94D7079C01369527951C
:100ED0003695279536952795C901880F991F880F54
:100EE000991F820F931F880F991F481B590BFA01F6
:100EF000E65FFD4F60E070E080810E94C00687EEF3
:100F000093E00197F1F700C00000DF91CF910895C1
:100F100060E070E087E80E94C00687EE93E00197EA
:100F2000F1F700C0000061E070E083EE0E94C006AF
:100F300087EE93E00197F1F700C0000062E070E0F7
:100F40008FEA0E94C00687EE93E00197F1F700C098
:100F5000000063E070E081EA0E94C00687EE93E043
:100F60000197F1F700C000000895A1E21A2EAA1B14
:100F7000BB1BFD010DC0AA1FBB1FEE1FFF1FA21749
:100F8000B307E407F50720F0A21BB30BE40BF50B46
:100F9000661F771F881F991F1A9469F760957095CF
:100FA000809590959B01AC01BD01CF010895A29F52
:100FB000B001B39FC001A39F700D811D1124911D2D
:100FC000B29F700D811D1124911D08955058BB27AB
:100FD000AA270E94FE070C944F090E94410938F08D
:100FE0000E94480920F039F49F3F19F426F40C942C
:100FF0003E090EF4E095E7FB0C943809E92F0E94B6
:10100000600958F3BA17620773078407950720F041
:1010100079F4A6F50C9482090EF4E0950B2EBA2F04
:10102000A02D0B01B90190010C01CA01A0011124EE
:10103000FF27591B99F0593F50F4503E68F11A169A
:10104000F040A22F232F342F4427585FF3CF46952B
:1010500037952795A795F0405395C9F77EF41F164D
:10106000BA0B620B730B840BBAF09150A1F0FF0F17
:10107000BB1F661F771F881FC2F70EC0BA0F621F03
:10108000731F841F48F4879577956795B795F795F3
:101090009E3F08F0B0CF9395880F08F09927EE0F88
:1010A0009795879508950E9467080C944F090E94B0
:1010B000480958F00E94410940F029F45F3F29F0A7
:1010C0000C94380951110C9483090C943E090E9428
:1010D000600968F39923B1F3552391F3951B550BE0
:1010E000BB27AA2762177307840738F09F5F5F4FFB
:1010F000220F331F441FAA1FA9F335D00E2E3AF03A
:10110000E0E832D091505040E695001CCAF72BD051
:10111000FE2F29D0660F771F881FBB1F26173707A2
:101120004807AB07B0E809F0BB0B802DBF01FF27D4
:1011300093585F4F3AF09E3F510578F00C94380970
:101140000C9483095F3FE4F3983ED4F3869577953A
:101150006795B795F7959F5FC9F7880F911D96958D
:10116000879597F90895E1E0660F771F881FBB1FE9
:10117000621773078407BA0720F0621B730B840B96
:10118000BA0BEE1F88F7E09508950E94CC0868948A
:10119000B1110C94830908950E94680988F09F5743
:1011A00098F0B92F9927B751B0F0E1F0660F771F8B
:1011B000881F991F1AF0BA95C9F714C0B13091F081
:1011C0000E948209B1E008950C948209672F782F5C
:1011D0008827B85F39F0B93FCCF386957795679546
:1011E000B395D9F73EF490958095709561957F4FB2
:1011F0008F4F9F4F0895E89409C097FB3EF4909558
:101200008095709561957F4F8F4F9F4F9923A9F0DF
:10121000F92F96E9BB279395F6958795779567956E
:10122000B795F111F8CFFAF4BB0F11F460FF1BC0B2
:101230006F5F7F4F8F4F9F4F16C0882311F096E945
:1012400011C0772321F09EE8872F762F05C06623F3
:1012500071F096E8862F70E060E02AF09A95660FAC
:10126000771F881FDAF7880F9695879597F9089565
:1012700097F99F6780E870E060E008959FEF80EC49
:10128000089500240A9416161706180609060895EC
:1012900000240A9412161306140605060895092E52
:1012A0000394000C11F4882352F0BB0F40F4BF2BC1
:1012B00011F460FF04C06F5F7F4F8F4F9F4F089501
:1012C00057FD9058440F551F59F05F3F71F04795F7
:1012D000880F97FB991F61F09F3F79F087950895DC
:1012E000121613061406551FF2CF4695F1DF08C0FB
:1012F000161617061806991FF1CF86957105610518
:1013000008940895E894BB2766277727CB0197F9BF
:1013100008950E949C090C944F090E94410938F0DD
:101320000E94480920F0952311F00C9438090C9480
:101330003E0911240C9483090E94600970F3959F63
:10134000C1F3950F50E0551F629FF001729FBB27BC
:10135000F00DB11D639FAA27F00DB11DAA1F649F58
:101360006627B00DA11D661F829F2227B00DA11D0B
:10137000621F739FB00DA11D621F839FA00D611D91
:10138000221F749F3327A00D611D231F849F600DB2
:10139000211D822F762F6A2F11249F5750409AF0DB
:1013A000F1F088234AF0EE0FFF1FBB1F661F771F67
:1013B000881F91505040A9F79E3F510580F00C9432
:1013C00038090C9483095F3FE4F3983ED4F3869583
:1013D00077956795B795F795E7959F5FC1F7FE2BD2
:1013E000880F911D9695879597F90895F894FFCFEA
:1013F0003F065B4F666D7D077F6FC0F9A4B0999281
:0414000082F880905E
:00000001FF
