:100000000C9472000C9493000C9493000C94930045
:100010000C9493000C9470020C94F5020C949300D1
:100020000C9493000C9493000C9493000C94930004
:100030000C9493000C9493000C9493000C949300F4
:100040000C9493000C9493000C9493000C949300E4
:100050000C9493000C9493000C9493000C949300D4
:100060000C9493000C9493000C9493000C949300C4
:100070000C9493000C9493000C9493000C949300B4
:100080000C9493000C9493000C9493000C949300A4
:100090000C9493000C9493000C9493000C94930094
:1000A0000C9493000C9493000C9493000C94930084
:1000B0000C9493000C9493000C9493000C94930074
:1000C0000C9493000C9493000C9493000C94930064
:1000D0000C9493000C9493000C9493000C94930054
:1000E0000C94930011241FBECFEFD1E2DEBFCDBF31
:1000F00000E00CBF12E0A0E0B2E0E4EEF4E100E0CA
:100100000BBF02C007900D92A431B107D9F722E0CE
:10011000A4E1B2E001C01D92A832B207E1F70E944B
:100120004A010C94700A0C9400003F980E983E9A75
:100130000F9A479816980895529851986D983D9A3D
:100140006C983C9A45984498EAE6F0E08081826099
:10015000808380818E7F808380818860808380819E
:100160008B7F8083EC9AED9A85B5846085BD85B5DB
:100170008D7F85BD85B5816085BD089508980998F6
:100180000A980B980C980D98109A119A129A139A33
:10019000149A159A0895229A219A2A9A299A0895CA
:1001A000E1E0F1E0808188608083AAE0B1E08C9199
:1001B00088608C93E2E0F1E08081877F8083EBE0D0
:1001C000F1E08081877F80838C9180648C938C9117
:1001D00080618C938C9184608C938C9181608C93E2
:1001E00080818F7B808380818F7E808380818B7FE5
:1001F000808380818E7F808308955098089520E4C5
:100200003CE9309327012093260192E89093200146
:100210008AE1809321013093A7002093A600909358
:10022000A0008093A1000895E1E0F1E08081806367
:1002300080839D9AA598089586E98093B2001092D4
:10024000B00084E08093B100089583B3836083BBE2
:100250000E9481018AE80E9456010E94930180E079
:1002600090E00E94A40108950E9495000E949C00C5
:100270000E94BE000E94CB000E94D0000E94FD00A0
:100280000E94FF000E941C010E9414010E9425018F
:10029000789408950E943401459A449A61E070E090
:1002A00085E090E00E946302FFCF089598E012C0BD
:1002B000A098E7ECF0E03197F1F700C00000A19AB8
:1002C000E7ECF0E03197F1F700C00000869591501F
:1002D000992329F0A19880FFEBCFA09AEACFA198AB
:1002E000989887EC90E00197F1F700C00000A19A80
:1002F000E7ECF0E03197F1F700C00000A198989A80
:100300000895989AA09AA19A87EC90E00197F1F746
:1003100000C00000A09887EC90E00197F1F700C0C2
:100320000000A1980895A198A09887EC90E001970B
:10033000F1F700C00000A19A87EC90E00197F1F777
:1003400000C00000A09A0895CF92DF92EF92FF9232
:100350000F931F93CF93DF9300D00F92CDB7DEB7EB
:10036000482F592F9A01369527953695279536951A
:100370002795A5ECB0E20E943D08929582958F707A
:1003800089279F70892789839A0136952795369505
:100390002795ABE7B4E10E943D08FC01F695E7958F
:1003A0009F01ADECBCEC0E943D089C013695279561
:1003B0003695279536952795C901880F991F880F7F
:1003C000991F820F931F880F991FE81BF90BEA836F
:1003D0009A010E943D08FC01F695E795F695E79590
:1003E000F695E7959F010E943D089C01369527955B
:1003F0003695279536952795C901880F991F880F3F
:10040000991F820F931F880F991F9F01281B390B7B
:100410002B83CF01880F991F880F991F8E0F9F1F65
:10042000880F991F481B590B4C830E94810180E45F
:100430000E9456010E9493010E94810180EC0E945B
:100440005601CE0101967C0100E010E0DD24D3943A
:10045000C12C0FC0D701ED917D01F0E0E050FE4FBF
:1004600080810E9456010F5F1F4F0430110591F0EB
:10047000DC2C0330110574F7D7018C918111EACF80
:10048000DD2041F30E9456010F5F1F4FBFEFEB1AB3
:10049000FB0AEFCF0E9493010F900F900F900F90E7
:1004A000DF91CF911F910F91FF90EF90DF90CF9050
:1004B0000895809116029091170201969093170269
:1004C0008093160208956130710529F0809114021D
:1004D0009091150208958093140290931502F6CF1F
:1004E0001F920F920FB60F9211240BB60F92EF923C
:1004F000FF920F931F932F933F934F935F936F93AD
:100500007F938F939F93AF93BF93EF93FF93CF937B
:10051000DF930F920F92CDB7DEB7E0901402F09008
:1005200015020E945902082F192FC8010E94A40128
:1005300060E070E0CB010E947A0360E070E0CB01E4
:100540000E94AA031A8219820E151F05B4F016BC68
:1005500022E031E008C0A89B06C035BB89819A81A2
:1005600001969A83898389819A81CD97A4F385B175
:10057000822785B91A821982F6CF16BC89819A81A1
:100580008A379105B4F4A89BF9CF81E085BB8981B6
:100590009A8101969A83898389819A816EE170E0BC
:1005A0000E942908892B51F785B192E0892785B9E6
:1005B000E5CF299A0F900F90DF91CF91FF91EF91A6
:1005C000BF91AF919F918F917F916F915F914F916B
:1005D0003F912F911F910F91FF90EF900F900BBEC5
:1005E0000F900FBE0F901F9018951F920F920FB68D
:1005F0000F9211240BB60F92EF92FF920F931F935D
:100600002F933F934F935F936F937F938F939F931A
:10061000AF93BF93EF93FF93CF93DF930F920F921C
:10062000CDB7DEB7E0901402F09015020E94590297
:10063000082F192FC8010E94A40160E070E0CB01CF
:100640000E947A0360E070E0CB010E94AA031A8244
:1006500019820E151F05B4F016BC22E031E008C067
:10066000A89B06C035BB89819A8101969A838983AC
:1006700089819A81CD97A4F385B1822785B91A82A1
:100680001982F6CF16BC89819A818A379105B4F414
:10069000A89BF9CF81E085BB89819A8101969A83D5
:1006A000898389819A816EE170E00E942908892BF3
:1006B00051F785B192E0892785B9E5CF299A0F9046
:1006C0000F90DF91CF91FF91EF91BF91AF919F91EB
:1006D0008F917F916F915F914F913F912F911F91DA
:1006E0000F91FF90EF900F900BBE0F900FBE0F90E9
:1006F0001F901895CF93DF9300D00F92CDB7DEB740
:1007000020E030E44CE956E469837A838B839C8350
:1007100069817A818B819C810E94030A69837A8333
:100720008B839C8369817A818B819C810E943F09A4
:10073000862F972F99235CF09093A9008093A800AF
:100740000F900F900F900F90DF91CF91089580E45C
:100750009CE9F2CFCF93DF9300D00F92CDB7DEB7F5
:1007600020E030E44CE956E469837A838B839C83F0
:1007700069817A818B819C810E94030A69837A83D3
:100780008B839C8369817A818B819C810E943F0944
:10079000862F972F99235CF090932901809328014D
:1007A0000F900F900F900F90DF91CF91089580E4FC
:1007B0009CE9F2CF282F392F862F972F8130910572
:1007C00059F0892B41F42130310591F12230310566
:1007D000C1F1232B21F108952130310571F0223030
:1007E0003105A1F0232BB9F7EBE0F1E080818460C3
:1007F000808380818E7F80830895EBE0F1E08081AB
:100800008B7F80838081816080830895EBE0F1E0BD
:100810008081846080838081816080830895EBE0A3
:10082000F1E080818064808380818F7E8083089561
:10083000EBE0F1E080818F7B808380818061808329
:100840000895EBE0F1E080818064808380818061A5
:100850008083C1CFCF93DF9300D00F92CDB7DEB7A7
:10086000282F392F203131050CF041C0C901330F39
:10087000AA0BBB0B89839A83AB83BC83BC01CD01DC
:100880000E947709262F372F482F592F60E070E0FC
:1008900080E791E40E94600820E030E040E751E406
:1008A00069837A838B839C8369817A818B819C8124
:1008B0000E94CD08362F272F432F522F682F792FD4
:1008C00040932402509325026093260270932702DE
:1008D00039832A838B839C8369817A818B819C8174
:1008E0000F900F900F900F90DF91CF91089530E00F
:1008F00020E080E090E0E0CFCF93DF9300D00F9234
:10090000CDB7DEB7282F392F203131050CF041C08B
:10091000C901330FAA0BBB0B89839A83AB83BC83BA
:10092000BC01CD010E947709262F372F482F592F60
:1009300060E070E080E791E40E94600820E030E031
:1009400040E751E469837A838B839C8369817A8150
:100950008B819C810E94CD08362F272F432F522F49
:10096000682F792F40932002509321026093220236
:100970007093230239832A838B839C8369817A81D4
:100980008B819C810F900F900F900F90DF91CF91F2
:10099000089530E020E080E090E0E0CF0F931F93D7
:1009A000CF93DF9300D000D0CDB7DEB78D839E8389
:1009B00061E070E080E090E00E94DA0360E070E0C7
:1009C00080E090E00E94DA0360E070E080E89FE35E
:1009D0000E94AA0360E070E080E89FE30E947A032F
:1009E00080911A0290911B0206970CF0A9C007EEA5
:1009F00013E03FC00E94E4068536910528F08D8102
:100A00009E81019709F45CC010921B0210921A0299
:100A100080911C0290911D0220911E0230911F02B4
:100A2000281739070CF456C080911E0290911F02BE
:100A300020911C0230911D02281739070CF467C061
:100A400080911E0290911F02853691053CF48091A1
:100A50001C0290911D028536910524F01093190215
:100A60000093180280911A0290911B0206970CF0D5
:100A700067C080911E0290911F020E9470070E9421
:100A8000E40690931D0280931C020E9482069093BC
:100A90001F0280931E020E9482068536910508F48B
:100AA000A9CF8D819E81892B09F0A4CF80911A0254
:100AB00090911B02019690931B0280931A02D2CF51
:100AC00080911A0290911B02019690931B028093D1
:100AD0001A02C8CF821B930B9093190280931802BD
:100AE00060E070E080E89FE30E94AA038091180212
:100AF000909119020E942A0469837A838B839C83D4
:100B000069817A818B819C810E947A038DCF821BBF
:100B1000930B90931902809318020E947C046983BE
:100B20007A838B839C8369817A818B819C810E94EB
:100B3000AA0360E070E080E89FE30E947A0380CF20
:100B40000F900F900F900F900F900F90DF91CF911B
:100B50001F910F910895282F392F2115310599F0F4
:100B600021303105E9F086E290E041E0E4E8F0E090
:100B700026E937EEB09BFECF01970097F1F046BB18
:100B800031832083F7CF60E070E080E89FE30E942C
:100B9000AA036BED76EB8DEE9EE30E947A03E3CF22
:100BA0006BED76EB8DEE9EE30E94AA0360E070E0B1
:100BB00080E89FE30E947A03D6CF0895CF92DF9218
:100BC000EF92FF920F931F93CF93DF930E94340114
:100BD00021E030E080E090E071E060E06894CC24B7
:100BE000C1F8D12C0F2EF3E0EF2EF02DF12C04E004
:100BF00010E0D5E0C0E0B0E0A0E007C02130310552
:100C000009F46EC0452B09F074C0009910C021157D
:100C1000310569F48FE19EE40197F1F700C000000F
:100C20002F982E9A2D9A272F362F872F962F01999E
:100C300010C02115310569F4EFE1FEE43197F1F7B9
:100C400000C000002E982F9A2D9A272F362F8C2D1A
:100C50009D2D029910C02115310569F48FE19EE4A4
:100C60000197F1F700C000002D982F9A2E9A272F98
:100C7000362F8E2D9F2D03990DC02115310551F46E
:100C8000EFE1FEE43197F1F700C00000272F362F87
:100C9000802F912F04990DC02115310551F48FE15A
:100CA0009EE40197F1F700C00000272F362F8D2F0B
:100CB0009C2F4B2F5A2F059908C0F72FE62F00972E
:100CC00011F4FB2FEA2F4F2F5E2F009997CF019938
:100CD00095CF029993CF039991CF049B93CF8ECF59
:100CE000EFE1FEE43197F1F700C000002B2F3A2F1F
:100CF00089CFDF91CF911F910F91FF90EF90DF90FF
:100D0000CF900895CF93DF9300D00F92CDB7DEB789
:100D10004698469A25E32A95F1F70000469880E127
:100D200097E2A0E0B0E0379905C00197A109B109A9
:100D3000D0F705C0892B8A2B8B2B09F442C0109267
:100D400085001092840082E080938100E4E8F0E066
:100D5000379B05C08081918180349C49C8F31092F3
:100D6000810080918400909185009C0140E050E0DA
:100D700029833A834B835C83CA01B9010E947509B8
:100D800028E23EE74CE05CE369837A838B839C83B3
:100D900069817A818B819C810E94030A69837A83AD
:100DA0008B839C8369817A818B819C810E94460917
:100DB000862F972F0F900F900F900F90DF91CF916C
:100DC000089587EE93E0F6CFCF93DF9300D00F9294
:100DD000CDB7DEB71798179A25E32A95F1F70000EB
:100DE000179880E197E2A0E0B0E0069905C001976E
:100DF000A109B109D0F705C0892B8A2B8B2B09F4E7
:100E000042C0109285001092840082E0809381009D
:100E1000E4E8F0E0069B05C08081918180349C4924
:100E2000C8F31092810080918400909185009C010C
:100E300040E050E029833A834B835C83CA01B901C7
:100E40000E94750928E23EE74CE05CE369837A83FF
:100E50008B839C8369817A818B819C810E94030AA8
:100E600069837A838B839C8369817A818B819C815E
:100E70000E944609862F972F0F900F900F900F908A
:100E8000DF91CF91089587EE93E0F6CF28E030E030
:100E9000E2E0F1E00FC090819F7D9083880F908108
:100EA0009061908390819F7E90832150310921151C
:100EB000310531F088237CF7908190629083EECFEA
:100EC0000895CF93C62F0E94460781E001C0880F86
:100ED000CA95EAF70E944607A59AA598CF9108956A
:100EE000CF93DF93C82FD92F9E01ADECBCEC0E94AD
:100EF0003D089C013695279536952795369527957B
:100F0000C901880F991F880F991F820F931F880F9F
:100F1000991FFE01E81BF90BE65FFD4F63E070E0EF
:100F200080810E9461078FE19EE40197F1F700C084
:100F300000009E01ADECBCEC0E943D08EC01D69592
:100F4000C795D695C795D695C7959E010E943D0831
:100F50009C01369527953695279536952795C90195
:100F6000880F991F880F991F820F931F880F991F51
:100F7000FE01E81BF90BE65FFD4F62E070E0808147
:100F80000E9461078FE19EE40197F1F700C0000025
:100F90009E01ADECBCEC0E943D08EC01D695C795D6
:100FA000D695C795D695C7959E010E943D089C0190
:100FB000369527953695279536952795C901880F3B
:100FC000991F880F991F820F931F880F991FFE0189
:100FD000E81BF90BE65FFD4F61E070E080810E9445
:100FE00061078FE19EE40197F1F700C000009E01C8
:100FF000ADECBCEC0E943D08AC015695479556956A
:101000004795569547959A010E943D089C01369553
:1010100027953695279536952795C901880F991FED
:10102000880F991F820F931F880F991F481B590B18
:10103000FA01E65FFD4F60E070E080810E94610789
:1010400087EE93E00197F1F700C00000DF91CF91A8
:10105000089597FB072E16F4009407D077FD09D06A
:101060000E944C0807FC05D03EF4909581959F4F57
:101070000895709561957F4F0895A29FB001B39F29
:10108000C001A39F700D811D1124911DB29F700D91
:10109000811D1124911D0895AA1BBB1B51E107C09E
:1010A000AA1FBB1FA617B70710F0A61BB70B881FF8
:1010B000991F5A95A9F780959095BC01CD01089587
:1010C0005058BB27AA270E9478080C94C9090E948F
:1010D000BB0938F00E94C20920F039F49F3F19F48F
:1010E00026F40C94B8090EF4E095E7FB0C94B209D1
:1010F000E92F0E94DA0958F3BA17620773078407C9
:10110000950720F079F4A6F50C94FC090EF4E0950F
:101110000B2EBA2FA02D0B01B90190010C01CA01B1
:10112000A0011124FF27591B99F0593F50F4503E5C
:1011300068F11A16F040A22F232F342F4427585F4E
:10114000F3CF469537952795A795F0405395C9F766
:101150007EF41F16BA0B620B730B840BBAF091501E
:10116000A1F0FF0FBB1F661F771F881FC2F70EC0BD
:10117000BA0F621F731F841F48F487957795679590
:10118000B795F7959E3F08F0B0CF9395880F08F07C
:101190009927EE0F9795879508950E94E1080C9482
:1011A000C9090E94C20958F00E94BB0940F029F405
:1011B0005F3F29F00C94B20951110C94FD090C9475
:1011C000B8090E94DA0968F39923B1F3552391F322
:1011D000951B550BBB27AA2762177307840738F0A6
:1011E0009F5F5F4F220F331F441FAA1FA9F335D003
:1011F0000E2E3AF0E0E832D091505040E695001CB7
:10120000CAF72BD0FE2F29D0660F771F881FBB1F70
:10121000261737074807AB07B0E809F0BB0B802D4E
:10122000BF01FF2793585F4F3AF09E3F510578F07A
:101230000C94B2090C94FD095F3FE4F3983ED4F39B
:10124000869577956795B795F7959F5FC9F7880F4E
:10125000911D9695879597F90895E1E0660F771FA0
:10126000881FBB1F621773078407BA0720F0621B31
:10127000730B840BBA0BEE1F88F7E09508950E945C
:1012800046096894B1110C94FD0908950E94E20981
:1012900088F09F5798F0B92F9927B751B0F0E1F037
:1012A000660F771F881F991F1AF0BA95C9F714C0E7
:1012B000B13091F00E94FC09B1E008950C94FC0952
:1012C000672F782F8827B85F39F0B93FCCF3869520
:1012D00077956795B395D9F73EF49095809570957D
:1012E00061957F4F8F4F9F4F0895E89409C097FBFA
:1012F0003EF490958095709561957F4F8F4F9F4FED
:101300009923A9F0F92F96E9BB279395F695879530
:1013100077956795B795F111F8CFFAF4BB0F11F4F3
:1013200060FF1BC06F5F7F4F8F4F9F4F16C088239A
:1013300011F096E911C0772321F09EE8872F762FD0
:1013400005C0662371F096E8862F70E060E02AF011
:101350009A95660F771F881FDAF7880F96958795FD
:1013600097F9089597F99F6780E870E060E0089525
:101370009FEF80EC089500240A94161617061806AD
:101380000906089500240A94121613061406050689
:101390000895092E0394000C11F4882352F0BB0F1A
:1013A00040F4BF2B11F460FF04C06F5F7F4F8F4F7D
:1013B0009F4F089557FD9058440F551F59F05F3FB8
:1013C00071F04795880F97FB991F61F09F3F79F067
:1013D00087950895121613061406551FF2CF4695E9
:1013E000F1DF08C0161617061806991FF1CF86956B
:1013F0007105610508940895E894BB27662777274F
:10140000CB0197F908950E94160A0C94C9090E940D
:10141000BB0938F00E94C20920F0952311F00C940A
:10142000B2090C94B80911240C94FD090E94DA0940
:1014300070F3959FC1F3950F50E0551F629FF00127
:10144000729FBB27F00DB11D639FAA27F00DB11D40
:10145000AA1F649F6627B00DA11D661F829F2227C9
:10146000B00DA11D621F739FB00DA11D621F839F50
:10147000A00D611D221F749F3327A00D611D231F26
:10148000849F600D211D822F762F6A2F11249F5774
:1014900050409AF0F1F088234AF0EE0FFF1FBB1F77
:1014A000661F771F881F91505040A9F79E3F510536
:1014B00080F00C94B2090C94FD095F3FE4F3983E70
:1014C000D4F3869577956795B795F795E7959F5FE0
:1014D000C1F7FE2B880F911D9695879597F9089572
:0414E000F894FFCFAE
:1014E4003F065B4F666D7D077F6FC0F9A4B099928C
:0414F40082F880906A
:00000001FF
